{
    "contractName": "SupplyChain",
    "abi": [
        {
            "inputs": [
                {
                    "internalType": "string",
                    "name": "name1",
                    "type": "string"
                },
                {
                    "internalType": "string",
                    "name": "description1",
                    "type": "string"
                }
            ],
            "name": "drugCreate",
            "outputs": [
                {
                    "internalType": "uint256",
                    "name": "",
                    "type": "uint256"
                }
            ],
            "stateMutability": "nonpayable",
            "type": "function"
        },
        {
            "inputs": [
                {
                    "internalType": "uint256",
                    "name": "",
                    "type": "uint256"
                }
            ],
            "name": "drugs",
            "outputs": [
                {
                    "internalType": "string",
                    "name": "name",
                    "type": "string"
                },
                {
                    "internalType": "string",
                    "name": "description",
                    "type": "string"
                },
                {
                    "internalType": "enum SupplyChain.Status",
                    "name": "status",
                    "type": "uint8"
                }
            ],
            "stateMutability": "view",
            "type": "function"
        },
        {
            "inputs": [
                {
                    "internalType": "uint256",
                    "name": "index",
                    "type": "uint256"
                }
            ],
            "name": "orderDrug",
            "outputs": [],
            "stateMutability": "nonpayable",
            "type": "function"
        }
    ],
    "bytecode": "608060405234801561001057600080fd5b50610682806100206000396000f3fe608060405234801561001057600080fd5b50600436106100415760003560e01c8063507d8d3314610046578063bd11de371461006c578063fca5e61e14610081575b600080fd5b61005961005436600461039f565b6100a3565b6040519081526020015b60405180910390f35b61007f61007a366004610403565b610165565b005b61009461008f366004610403565b6101af565b60405161006393929190610478565b6000806040518060600160405280858152602001848152602001600060048111156100d0576100d0610462565b905260008054919250906100e59060016104cc565b905081600082815481106100fb576100fb6104ed565b60009182526020909120825160039092020190819061011a908261058c565b506020820151600182019061012f908261058c565b50604082015160028201805460ff1916600183600481111561015357610153610462565b02179055509193505050505b92915050565b60016000828154811061017a5761017a6104ed565b60009182526020909120600260039092020101805460ff191660018360048111156101a7576101a7610462565b021790555050565b600081815481106101bf57600080fd5b90600052602060002090600302016000915090508060000180546101e290610503565b80601f016020809104026020016040519081016040528092919081815260200182805461020e90610503565b801561025b5780601f106102305761010080835404028352916020019161025b565b820191906000526020600020905b81548152906001019060200180831161023e57829003601f168201915b50505050509080600101805461027090610503565b80601f016020809104026020016040519081016040528092919081815260200182805461029c90610503565b80156102e95780601f106102be576101008083540402835291602001916102e9565b820191906000526020600020905b8154815290600101906020018083116102cc57829003601f168201915b5050506002909301549192505060ff1683565b634e487b7160e01b600052604160045260246000fd5b600082601f83011261032357600080fd5b813567ffffffffffffffff8082111561033e5761033e6102fc565b604051601f8301601f19908116603f01168101908282118183101715610366576103666102fc565b8160405283815286602085880101111561037f57600080fd5b836020870160208301376000602085830101528094505050505092915050565b600080604083850312156103b257600080fd5b823567ffffffffffffffff808211156103ca57600080fd5b6103d686838701610312565b935060208501359150808211156103ec57600080fd5b506103f985828601610312565b9150509250929050565b60006020828403121561041557600080fd5b5035919050565b6000815180845260005b8181101561044257602081850181015186830182015201610426565b506000602082860101526020601f19601f83011685010191505092915050565b634e487b7160e01b600052602160045260246000fd5b60608152600061048b606083018661041c565b828103602084015261049d818661041c565b915050600583106104be57634e487b7160e01b600052602160045260246000fd5b826040830152949350505050565b8082018082111561015f57634e487b7160e01b600052601160045260246000fd5b634e487b7160e01b600052603260045260246000fd5b600181811c9082168061051757607f821691505b60208210810361053757634e487b7160e01b600052602260045260246000fd5b50919050565b601f82111561058757600081815260208120601f850160051c810160208610156105645750805b601f850160051c820191505b8181101561058357828155600101610570565b5050505b505050565b815167ffffffffffffffff8111156105a6576105a66102fc565b6105ba816105b48454610503565b8461053d565b602080601f8311600181146105ef57600084156105d75750858301515b600019600386901b1c1916600185901b178555610583565b600085815260208120601f198616915b8281101561061e578886015182559484019460019091019084016105ff565b508582101561063c5787850151600019600388901b60f8161c191681555b5050505050600190811b0190555056fea26469706673582212201bee8f983461c04e7a3cf5bf853dcf954981cbd176903fd4bc8c9e8ad380b44464736f6c63430008110033",
    "sourcePath": "c:/Users/FiaZZ/SupplyChain/contracts/SupplyChain.sol",
    "compiler": {
        "name": "solc",
        "version": "0.8.17+commit.8df45f5f"
    },
    "functionHashes": {
        "drugCreate(string,string)": "507d8d33",
        "drugs(uint256)": "fca5e61e",
        "orderDrug(uint256)": "bd11de37"
    },
    "gasEstimates": {
        "creation": {
            "codeDepositCost": "333200",
            "executionCost": "374",
            "totalCost": "333574"
        },
        "external": {
            "drugCreate(string,string)": "infinite",
            "drugs(uint256)": "infinite",
            "orderDrug(uint256)": "26692"
        }
    }
}