{
  "contractName": "Client",
  "abi": [
    {
      "inputs": [],
      "stateMutability": "nonpayable",
      "type": "constructor"
    },
    {
      "inputs": [
        {
          "internalType": "address",
          "name": "account",
          "type": "address"
        }
      ],
      "name": "addClient",
      "outputs": [],
      "stateMutability": "nonpayable",
      "type": "function"
    },
    {
      "inputs": [
        {
          "internalType": "address",
          "name": "account",
          "type": "address"
        }
      ],
      "name": "isClient",
      "outputs": [
        {
          "internalType": "bool",
          "name": "",
          "type": "bool"
        }
      ],
      "stateMutability": "view",
      "type": "function"
    }
  ],
  "bytecode": "0x608060405234801561001057600080fd5b506100203361002560201b60201c565b6101ea565b61003d81600061004060201b6100bb1790919060201c565b50565b61005082826100ee60201b60201c565b15610090576040517f08c379a0000000000000000000000000000000000000000000000000000000008152600401610087906101ca565b60405180910390fd5b60018260000160008373ffffffffffffffffffffffffffffffffffffffff1673ffffffffffffffffffffffffffffffffffffffff16815260200190815260200160002060006101000a81548160ff0219169083151502179055505050565b60008260000160008373ffffffffffffffffffffffffffffffffffffffff1673ffffffffffffffffffffffffffffffffffffffff16815260200190815260200160002060009054906101000a900460ff16905092915050565b600082825260208201905092915050565b7f54686973206164647265737320616c726561647920686173207468697320726f60008201527f6c65000000000000000000000000000000000000000000000000000000000000602082015250565b60006101b4602283610147565b91506101bf82610158565b604082019050919050565b600060208201905081810360008301526101e3816101a7565b9050919050565b61035b806101f96000396000f3fe608060405234801561001057600080fd5b50600436106100365760003560e01c806343928cfd1461003b57806384b7964f14610057575b600080fd5b6100556004803603810190610050919061021f565b610087565b005b610071600480360381019061006c919061021f565b61009e565b60405161007e9190610267565b60405180910390f35b61009b8160006100bb90919063ffffffff16565b50565b60006100b482600061016390919063ffffffff16565b9050919050565b6100c58282610163565b15610105576040517f08c379a00000000000000000000000000000000000000000000000000000000081526004016100fc90610305565b60405180910390fd5b60018260000160008373ffffffffffffffffffffffffffffffffffffffff1673ffffffffffffffffffffffffffffffffffffffff16815260200190815260200160002060006101000a81548160ff0219169083151502179055505050565b60008260000160008373ffffffffffffffffffffffffffffffffffffffff1673ffffffffffffffffffffffffffffffffffffffff16815260200190815260200160002060009054906101000a900460ff16905092915050565b600080fd5b600073ffffffffffffffffffffffffffffffffffffffff82169050919050565b60006101ec826101c1565b9050919050565b6101fc816101e1565b811461020757600080fd5b50565b600081359050610219816101f3565b92915050565b600060208284031215610235576102346101bc565b5b60006102438482850161020a565b91505092915050565b60008115159050919050565b6102618161024c565b82525050565b600060208201905061027c6000830184610258565b92915050565b600082825260208201905092915050565b7f54686973206164647265737320616c726561647920686173207468697320726f60008201527f6c65000000000000000000000000000000000000000000000000000000000000602082015250565b60006102ef602283610282565b91506102fa82610293565b604082019050919050565b6000602082019050818103600083015261031e816102e2565b905091905056fea2646970667358221220ec374b9339896210444b1090ed498cf48aa25ab12faebfac49708fedec4fc61364736f6c63430008110033",
  "immutableReferences": {},
  "source": "// SPDX-License-Identifier: MIT\r\npragma solidity ^0.8.0;\r\nimport \"./Roles.sol\";\r\n\r\ncontract Client {\r\n\r\n    using Roles for Roles.Role;\r\n    Roles.Role private clients;\r\n    constructor () {\r\n        addClient(msg.sender);\r\n    }\r\n\r\n    modifier onlyClient() {\r\n    require(isClient(msg.sender), \"This account has no a Client Role\");\r\n    _;\r\n  } \r\n\r\n    function addClient(address account) public {\r\n        clients.add(account);\r\n       \r\n    }\r\n\r\n    function removeClient(address account) internal {\r\n        clients.remove(account);\r\n    }\r\n\r\n    function isClient(address account) public view returns (bool) {\r\n        return clients.has(account);\r\n    }\r\n    \r\n}",
  "sourcePath": "C:\\Users\\FiaZZ\\A-Blockchain-Based-Approach-for-Drug-Traceability-in-Healthcare-Supply-Chain\\SupplyChain\\contracts\\roles\\Client.sol",
  "compiler": {
    "name": "solc",
    "version": "0.8.17+commit.8df45f5f.Emscripten.clang"
  },
  "schemaVersion": "3.4.11",
  "updatedAt": "2023-03-25T04:46:08.363Z",
  "devdoc": {
    "kind": "dev",
    "methods": {},
    "version": 1
  },
  "userdoc": {
    "kind": "user",
    "methods": {},
    "version": 1
  }
}