{
  "contractName": "Distributor",
  "abi": [
    {
      "inputs": [],
      "stateMutability": "nonpayable",
      "type": "constructor"
    },
    {
      "inputs": [
        {
          "internalType": "address",
          "name": "account",
          "type": "address"
        }
      ],
      "name": "isDistributor",
      "outputs": [
        {
          "internalType": "bool",
          "name": "",
          "type": "bool"
        }
      ],
      "stateMutability": "view",
      "type": "function"
    }
  ],
  "bytecode": "0x608060405234801561001057600080fd5b506100203361002560201b60201c565b6101ea565b61003d81600061004060201b61007d1790919060201c565b50565b61005082826100ee60201b60201c565b15610090576040517f08c379a0000000000000000000000000000000000000000000000000000000008152600401610087906101ca565b60405180910390fd5b60018260000160008373ffffffffffffffffffffffffffffffffffffffff1673ffffffffffffffffffffffffffffffffffffffff16815260200190815260200160002060006101000a81548160ff0219169083151502179055505050565b60008260000160008373ffffffffffffffffffffffffffffffffffffffff1673ffffffffffffffffffffffffffffffffffffffff16815260200190815260200160002060009054906101000a900460ff16905092915050565b600082825260208201905092915050565b7f54686973206164647265737320616c726561647920686173207468697320726f60008201527f6c65000000000000000000000000000000000000000000000000000000000000602082015250565b60006101b4602283610147565b91506101bf82610158565b604082019050919050565b600060208201905081810360008301526101e3816101a7565b9050919050565b61031d806101f96000396000f3fe608060405234801561001057600080fd5b506004361061002b5760003560e01c80638f0c86fa14610030575b600080fd5b61004a600480360381019061004591906101e1565b610060565b6040516100579190610229565b60405180910390f35b600061007682600061012590919063ffffffff16565b9050919050565b6100878282610125565b156100c7576040517f08c379a00000000000000000000000000000000000000000000000000000000081526004016100be906102c7565b60405180910390fd5b60018260000160008373ffffffffffffffffffffffffffffffffffffffff1673ffffffffffffffffffffffffffffffffffffffff16815260200190815260200160002060006101000a81548160ff0219169083151502179055505050565b60008260000160008373ffffffffffffffffffffffffffffffffffffffff1673ffffffffffffffffffffffffffffffffffffffff16815260200190815260200160002060009054906101000a900460ff16905092915050565b600080fd5b600073ffffffffffffffffffffffffffffffffffffffff82169050919050565b60006101ae82610183565b9050919050565b6101be816101a3565b81146101c957600080fd5b50565b6000813590506101db816101b5565b92915050565b6000602082840312156101f7576101f661017e565b5b6000610205848285016101cc565b91505092915050565b60008115159050919050565b6102238161020e565b82525050565b600060208201905061023e600083018461021a565b92915050565b600082825260208201905092915050565b7f54686973206164647265737320616c726561647920686173207468697320726f60008201527f6c65000000000000000000000000000000000000000000000000000000000000602082015250565b60006102b1602283610244565b91506102bc82610255565b604082019050919050565b600060208201905081810360008301526102e0816102a4565b905091905056fea2646970667358221220f2b99b3ea48dabe33c9d2da8428aa393f34c543ab6059dc81eac633311fa7e7c64736f6c63430008110033",
  "immutableReferences": {},
  "source": "// SPDX-License-Identifier: MIT\r\npragma solidity ^0.8.0;\r\nimport \"./Roles.sol\";\r\n\r\ncontract Distributor{\r\n\r\n    using Roles for Roles.Role;\r\n    Roles.Role private distributors;\r\n    constructor () {\r\n        addDistributor(msg.sender);\r\n    }\r\n    modifier onlyDistributor() {\r\n    require(isDistributor(msg.sender), \"This account has no a Distributor Role\");\r\n    _;\r\n  }\r\n    function addDistributor(address account) internal {\r\n        distributors.add(account);\r\n       \r\n    }\r\n\r\n    function removeDistributor(address account) internal {\r\n        distributors.remove(account);\r\n    }\r\n\r\n    function isDistributor(address account) public view returns (bool) {\r\n        return distributors.has(account);\r\n    }\r\n}",
  "sourcePath": "D:\\PCD\\supply\\SupplyChain\\contracts\\roles\\Distributor.sol",
  "compiler": {
    "name": "solc",
    "version": "0.8.17+commit.8df45f5f.Emscripten.clang"
  },
  "schemaVersion": "3.4.11",
  "updatedAt": "2023-02-18T22:47:45.584Z",
  "devdoc": {
    "kind": "dev",
    "methods": {},
    "version": 1
  },
  "userdoc": {
    "kind": "user",
    "methods": {},
    "version": 1
  }
}