{
  "contractName": "RoleManager",
  "abi": [
    {
      "inputs": [
        {
          "internalType": "address",
          "name": "account",
          "type": "address"
        }
      ],
      "name": "addClient",
      "outputs": [],
      "stateMutability": "nonpayable",
      "type": "function"
    },
    {
      "inputs": [
        {
          "internalType": "address",
          "name": "account",
          "type": "address"
        }
      ],
      "name": "isClient",
      "outputs": [
        {
          "internalType": "bool",
          "name": "",
          "type": "bool"
        }
      ],
      "stateMutability": "view",
      "type": "function"
    },
    {
      "inputs": [
        {
          "internalType": "address",
          "name": "account",
          "type": "address"
        }
      ],
      "name": "isDistributor",
      "outputs": [
        {
          "internalType": "bool",
          "name": "",
          "type": "bool"
        }
      ],
      "stateMutability": "view",
      "type": "function"
    },
    {
      "inputs": [
        {
          "internalType": "address",
          "name": "account",
          "type": "address"
        }
      ],
      "name": "isManufacturer",
      "outputs": [
        {
          "internalType": "bool",
          "name": "",
          "type": "bool"
        }
      ],
      "stateMutability": "view",
      "type": "function"
    },
    {
      "inputs": [
        {
          "internalType": "address",
          "name": "account",
          "type": "address"
        }
      ],
      "name": "isPharmacie",
      "outputs": [
        {
          "internalType": "bool",
          "name": "",
          "type": "bool"
        }
      ],
      "stateMutability": "view",
      "type": "function"
    },
    {
      "inputs": [],
      "name": "myRole",
      "outputs": [
        {
          "internalType": "bool",
          "name": "client",
          "type": "bool"
        },
        {
          "internalType": "bool",
          "name": "distributor",
          "type": "bool"
        },
        {
          "internalType": "bool",
          "name": "manufacturer",
          "type": "bool"
        },
        {
          "internalType": "bool",
          "name": "pharmacy",
          "type": "bool"
        }
      ],
      "stateMutability": "view",
      "type": "function"
    }
  ],
  "bytecode": "0x608060405234801561001057600080fd5b506100203361005260201b60201c565b61002f3361006d60201b60201c565b61003e3361008860201b60201c565b61004d336100a360201b60201c565b610268565b61006a8160006100be60201b6102271790919060201c565b50565b6100858160016100be60201b6102271790919060201c565b50565b6100a08160026100be60201b6102271790919060201c565b50565b6100bb8160036100be60201b6102271790919060201c565b50565b6100ce828261016c60201b60201c565b1561010e576040517f08c379a000000000000000000000000000000000000000000000000000000000815260040161010590610248565b60405180910390fd5b60018260000160008373ffffffffffffffffffffffffffffffffffffffff1673ffffffffffffffffffffffffffffffffffffffff16815260200190815260200160002060006101000a81548160ff0219169083151502179055505050565b60008260000160008373ffffffffffffffffffffffffffffffffffffffff1673ffffffffffffffffffffffffffffffffffffffff16815260200190815260200160002060009054906101000a900460ff16905092915050565b600082825260208201905092915050565b7f54686973206164647265737320616c726561647920686173207468697320726f60008201527f6c65000000000000000000000000000000000000000000000000000000000000602082015250565b60006102326022836101c5565b915061023d826101d6565b604082019050919050565b6000602082019050818103600083015261026181610225565b9050919050565b61050c806102776000396000f3fe608060405234801561001057600080fd5b50600436106100625760003560e01c8063067a6b051461006757806317d4a491146100885780633ee2abe2146100b857806343928cfd146100e857806384b7964f146101045780638f0c86fa14610134575b600080fd5b61006f610164565b60405161007f9493929190610343565b60405180910390f35b6100a2600480360381019061009d91906103eb565b61019c565b6040516100af9190610418565b60405180910390f35b6100d260048036038101906100cd91906103eb565b6101b9565b6040516100df9190610418565b60405180910390f35b61010260048036038101906100fd91906103eb565b6101d6565b005b61011e600480360381019061011991906103eb565b6101ed565b60405161012b9190610418565b60405180910390f35b61014e600480360381019061014991906103eb565b61020a565b60405161015b9190610418565b60405180910390f35b600080600080610173336101ed565b935061017e3361020a565b92506101893361019c565b9150610194336101b9565b905090919293565b60006101b28260026102cf90919063ffffffff16565b9050919050565b60006101cf8260036102cf90919063ffffffff16565b9050919050565b6101ea81600061022790919063ffffffff16565b50565b60006102038260006102cf90919063ffffffff16565b9050919050565b60006102208260016102cf90919063ffffffff16565b9050919050565b61023182826102cf565b15610271576040517f08c379a0000000000000000000000000000000000000000000000000000000008152600401610268906104b6565b60405180910390fd5b60018260000160008373ffffffffffffffffffffffffffffffffffffffff1673ffffffffffffffffffffffffffffffffffffffff16815260200190815260200160002060006101000a81548160ff0219169083151502179055505050565b60008260000160008373ffffffffffffffffffffffffffffffffffffffff1673ffffffffffffffffffffffffffffffffffffffff16815260200190815260200160002060009054906101000a900460ff16905092915050565b60008115159050919050565b61033d81610328565b82525050565b60006080820190506103586000830187610334565b6103656020830186610334565b6103726040830185610334565b61037f6060830184610334565b95945050505050565b600080fd5b600073ffffffffffffffffffffffffffffffffffffffff82169050919050565b60006103b88261038d565b9050919050565b6103c8816103ad565b81146103d357600080fd5b50565b6000813590506103e5816103bf565b92915050565b60006020828403121561040157610400610388565b5b600061040f848285016103d6565b91505092915050565b600060208201905061042d6000830184610334565b92915050565b600082825260208201905092915050565b7f54686973206164647265737320616c726561647920686173207468697320726f60008201527f6c65000000000000000000000000000000000000000000000000000000000000602082015250565b60006104a0602283610433565b91506104ab82610444565b604082019050919050565b600060208201905081810360008301526104cf81610493565b905091905056fea2646970667358221220745f1ffb2a3df79562ddac9352ad2bd7561a9d0001153c690e016265c0a25c9764736f6c63430008110033",
  "immutableReferences": {},
  "source": "// SPDX-License-Identifier: MIT\r\npragma solidity ^0.8.0;\r\n\r\nimport \"./roles/Client.sol\";\r\nimport \"./roles/Distributor.sol\";\r\nimport \"./roles/Manufacturer.sol\";\r\nimport \"./roles/Pharmacy.sol\";\r\n\r\ncontract RoleManager is Client,Distributor,Manufacturer,Pharmacy{\r\n    function myRole() public view returns(\r\n        bool client,\r\n        bool distributor,\r\n        bool manufacturer,\r\n        bool pharmacy\r\n    ){\r\n    client = isClient(msg.sender);\r\n    distributor= isDistributor(msg.sender);\r\n    manufacturer= isManufacturer(msg.sender);\r\n    pharmacy= isPharmacie(msg.sender);\r\n    }\r\n}",
  "sourcePath": "C:\\Users\\FiaZZ\\A-Blockchain-Based-Approach-for-Drug-Traceability-in-Healthcare-Supply-Chain\\SupplyChain\\contracts\\RoleManager.sol",
  "compiler": {
    "name": "solc",
    "version": "0.8.17+commit.8df45f5f.Emscripten.clang"
  },
  "schemaVersion": "3.4.11",
  "updatedAt": "2023-03-23T13:05:02.345Z",
  "devdoc": {
    "kind": "dev",
    "methods": {},
    "version": 1
  },
  "userdoc": {
    "kind": "user",
    "methods": {},
    "version": 1
  }
}