{
  "contractName": "SupplyChain",
  "abi": [
    {
      "inputs": [],
      "stateMutability": "nonpayable",
      "type": "constructor"
    },
    {
      "anonymous": false,
      "inputs": [
        {
          "indexed": true,
          "internalType": "uint256",
          "name": "id",
          "type": "uint256"
        },
        {
          "indexed": false,
          "internalType": "string",
          "name": "name",
          "type": "string"
        },
        {
          "indexed": false,
          "internalType": "string",
          "name": "description",
          "type": "string"
        },
        {
          "indexed": true,
          "internalType": "address",
          "name": "manufacturer",
          "type": "address"
        },
        {
          "indexed": false,
          "internalType": "int256",
          "name": "price",
          "type": "int256"
        }
      ],
      "name": "DrugAdded",
      "type": "event"
    },
    {
      "inputs": [
        {
          "internalType": "address",
          "name": "account",
          "type": "address"
        }
      ],
      "name": "addClient",
      "outputs": [],
      "stateMutability": "nonpayable",
      "type": "function"
    },
    {
      "inputs": [
        {
          "internalType": "uint256",
          "name": "",
          "type": "uint256"
        }
      ],
      "name": "drugs",
      "outputs": [
        {
          "internalType": "uint256",
          "name": "id",
          "type": "uint256"
        },
        {
          "internalType": "string",
          "name": "name",
          "type": "string"
        },
        {
          "internalType": "string",
          "name": "description",
          "type": "string"
        },
        {
          "internalType": "address",
          "name": "manufacturer",
          "type": "address"
        },
        {
          "internalType": "address",
          "name": "ownerID",
          "type": "address"
        },
        {
          "internalType": "int256",
          "name": "price",
          "type": "int256"
        },
        {
          "internalType": "enum SupplyChain.Status",
          "name": "Status",
          "type": "uint8"
        }
      ],
      "stateMutability": "view",
      "type": "function",
      "constant": true
    },
    {
      "inputs": [],
      "name": "drugsNumber",
      "outputs": [
        {
          "internalType": "uint256",
          "name": "",
          "type": "uint256"
        }
      ],
      "stateMutability": "view",
      "type": "function",
      "constant": true
    },
    {
      "inputs": [
        {
          "internalType": "address",
          "name": "account",
          "type": "address"
        }
      ],
      "name": "isClient",
      "outputs": [
        {
          "internalType": "bool",
          "name": "",
          "type": "bool"
        }
      ],
      "stateMutability": "view",
      "type": "function",
      "constant": true
    },
    {
      "inputs": [
        {
          "internalType": "address",
          "name": "account",
          "type": "address"
        }
      ],
      "name": "isDistributor",
      "outputs": [
        {
          "internalType": "bool",
          "name": "",
          "type": "bool"
        }
      ],
      "stateMutability": "view",
      "type": "function",
      "constant": true
    },
    {
      "inputs": [
        {
          "internalType": "address",
          "name": "account",
          "type": "address"
        }
      ],
      "name": "isManufacturer",
      "outputs": [
        {
          "internalType": "bool",
          "name": "",
          "type": "bool"
        }
      ],
      "stateMutability": "view",
      "type": "function",
      "constant": true
    },
    {
      "inputs": [
        {
          "internalType": "address",
          "name": "account",
          "type": "address"
        }
      ],
      "name": "isPharmacie",
      "outputs": [
        {
          "internalType": "bool",
          "name": "",
          "type": "bool"
        }
      ],
      "stateMutability": "view",
      "type": "function",
      "constant": true
    },
    {
      "inputs": [],
      "name": "orderNumber",
      "outputs": [
        {
          "internalType": "uint256",
          "name": "",
          "type": "uint256"
        }
      ],
      "stateMutability": "view",
      "type": "function",
      "constant": true
    },
    {
      "inputs": [
        {
          "internalType": "uint256",
          "name": "",
          "type": "uint256"
        }
      ],
      "name": "orders",
      "outputs": [
        {
          "internalType": "uint256",
          "name": "id",
          "type": "uint256"
        },
        {
          "internalType": "uint256",
          "name": "drugIndex",
          "type": "uint256"
        },
        {
          "internalType": "address",
          "name": "pharmacy",
          "type": "address"
        },
        {
          "internalType": "address",
          "name": "distributor",
          "type": "address"
        },
        {
          "internalType": "enum SupplyChain.OrderStatus",
          "name": "Status",
          "type": "uint8"
        }
      ],
      "stateMutability": "view",
      "type": "function",
      "constant": true
    },
    {
      "inputs": [],
      "name": "getDrugsNumber",
      "outputs": [
        {
          "internalType": "uint256",
          "name": "",
          "type": "uint256"
        }
      ],
      "stateMutability": "view",
      "type": "function",
      "constant": true
    },
    {
      "inputs": [],
      "name": "getAllDrug",
      "outputs": [
        {
          "components": [
            {
              "internalType": "uint256",
              "name": "id",
              "type": "uint256"
            },
            {
              "internalType": "string",
              "name": "name",
              "type": "string"
            },
            {
              "internalType": "string",
              "name": "description",
              "type": "string"
            },
            {
              "internalType": "address",
              "name": "manufacturer",
              "type": "address"
            },
            {
              "internalType": "address",
              "name": "ownerID",
              "type": "address"
            },
            {
              "internalType": "int256",
              "name": "price",
              "type": "int256"
            },
            {
              "internalType": "enum SupplyChain.Status",
              "name": "Status",
              "type": "uint8"
            }
          ],
          "internalType": "struct SupplyChain.Drug[]",
          "name": "",
          "type": "tuple[]"
        }
      ],
      "stateMutability": "view",
      "type": "function",
      "constant": true
    },
    {
      "inputs": [
        {
          "internalType": "string",
          "name": "name1",
          "type": "string"
        },
        {
          "internalType": "string",
          "name": "description1",
          "type": "string"
        },
        {
          "internalType": "int256",
          "name": "price",
          "type": "int256"
        }
      ],
      "name": "drugCreate",
      "outputs": [
        {
          "components": [
            {
              "internalType": "uint256",
              "name": "id",
              "type": "uint256"
            },
            {
              "internalType": "string",
              "name": "name",
              "type": "string"
            },
            {
              "internalType": "string",
              "name": "description",
              "type": "string"
            },
            {
              "internalType": "address",
              "name": "manufacturer",
              "type": "address"
            },
            {
              "internalType": "address",
              "name": "ownerID",
              "type": "address"
            },
            {
              "internalType": "int256",
              "name": "price",
              "type": "int256"
            },
            {
              "internalType": "enum SupplyChain.Status",
              "name": "Status",
              "type": "uint8"
            }
          ],
          "internalType": "struct SupplyChain.Drug",
          "name": "",
          "type": "tuple"
        }
      ],
      "stateMutability": "payable",
      "type": "function",
      "payable": true
    },
    {
      "inputs": [
        {
          "internalType": "uint256",
          "name": "index",
          "type": "uint256"
        },
        {
          "internalType": "address",
          "name": "distributor",
          "type": "address"
        }
      ],
      "name": "orderDrug",
      "outputs": [
        {
          "components": [
            {
              "internalType": "uint256",
              "name": "id",
              "type": "uint256"
            },
            {
              "internalType": "uint256",
              "name": "drugIndex",
              "type": "uint256"
            },
            {
              "internalType": "address",
              "name": "pharmacy",
              "type": "address"
            },
            {
              "internalType": "address",
              "name": "distributor",
              "type": "address"
            },
            {
              "internalType": "enum SupplyChain.OrderStatus",
              "name": "Status",
              "type": "uint8"
            }
          ],
          "internalType": "struct SupplyChain.Order",
          "name": "",
          "type": "tuple"
        }
      ],
      "stateMutability": "nonpayable",
      "type": "function"
    },
    {
      "inputs": [
        {
          "internalType": "uint256",
          "name": "index",
          "type": "uint256"
        },
        {
          "internalType": "int256",
          "name": "price",
          "type": "int256"
        }
      ],
      "name": "priceChanger",
      "outputs": [],
      "stateMutability": "nonpayable",
      "type": "function"
    },
    {
      "inputs": [
        {
          "internalType": "uint256",
          "name": "orderIndex",
          "type": "uint256"
        }
      ],
      "name": "AcceptOrder",
      "outputs": [],
      "stateMutability": "nonpayable",
      "type": "function"
    },
    {
      "inputs": [
        {
          "internalType": "uint256",
          "name": "orderIndex",
          "type": "uint256"
        }
      ],
      "name": "DeclineOrder",
      "outputs": [],
      "stateMutability": "nonpayable",
      "type": "function"
    },
    {
      "inputs": [
        {
          "internalType": "uint256",
          "name": "orderIndex",
          "type": "uint256"
        }
      ],
      "name": "startDeliverdrug",
      "outputs": [],
      "stateMutability": "nonpayable",
      "type": "function"
    },
    {
      "inputs": [
        {
          "internalType": "uint256",
          "name": "orderIndex",
          "type": "uint256"
        }
      ],
      "name": "endDelivering",
      "outputs": [],
      "stateMutability": "nonpayable",
      "type": "function"
    },
    {
      "inputs": [
        {
          "internalType": "uint256",
          "name": "index",
          "type": "uint256"
        }
      ],
      "name": "buyDrug",
      "outputs": [],
      "stateMutability": "nonpayable",
      "type": "function"
    }
  ],
  "bytecode": "0x6080604052600060055560006007553480156200001b57600080fd5b506200002d336200006660201b60201c565b6200003e336200008460201b60201c565b6200004f33620000a260201b60201c565b6200006033620000c060201b60201c565b62000293565b62000081816000620000de60201b620015fe1790919060201c565b50565b6200009f816001620000de60201b620015fe1790919060201c565b50565b620000bd816002620000de60201b620015fe1790919060201c565b50565b620000db816003620000de60201b620015fe1790919060201c565b50565b620000f082826200019160201b60201c565b1562000133576040517f08c379a00000000000000000000000000000000000000000000000000000000081526004016200012a9062000271565b60405180910390fd5b60018260000160008373ffffffffffffffffffffffffffffffffffffffff1673ffffffffffffffffffffffffffffffffffffffff16815260200190815260200160002060006101000a81548160ff0219169083151502179055505050565b60008260000160008373ffffffffffffffffffffffffffffffffffffffff1673ffffffffffffffffffffffffffffffffffffffff16815260200190815260200160002060009054906101000a900460ff16905092915050565b600082825260208201905092915050565b7f54686973206164647265737320616c726561647920686173207468697320726f60008201527f6c65000000000000000000000000000000000000000000000000000000000000602082015250565b600062000259602283620001ea565b91506200026682620001fb565b604082019050919050565b600060208201905081810360008301526200028c816200024a565b9050919050565b61291180620002a36000396000f3fe6080604052600436106101145760003560e01c8063a3a6fc44116100a0578063d11daa6a11610064578063d11daa6a146103e0578063dc6a7c5014610409578063f007151214610432578063f8f73a3e1461045d578063fca5e61e1461048657610114565b8063a3a6fc44146102dc578063a85c38ef14610319578063b04dd81b1461035a578063b230133c14610385578063c2ec7e0b146103b557610114565b806359c4db88116100e757806359c4db88146101e557806368f46b151461020e57806376f692741461023757806384b7964f146102625780638f0c86fa1461029f57610114565b806317d4a491146101195780633e25794c146101565780633ee2abe21461017f57806343928cfd146101bc575b600080fd5b34801561012557600080fd5b50610140600480360381019061013b9190611859565b6104c9565b60405161014d91906118a1565b60405180910390f35b34801561016257600080fd5b5061017d60048036038101906101789190611928565b6104e6565b005b34801561018b57600080fd5b506101a660048036038101906101a19190611859565b61054d565b6040516101b391906118a1565b60405180910390f35b3480156101c857600080fd5b506101e360048036038101906101de9190611859565b61056a565b005b3480156101f157600080fd5b5061020c60048036038101906102079190611968565b610581565b005b34801561021a57600080fd5b5061023560048036038101906102309190611968565b610661565b005b34801561024357600080fd5b5061024c610741565b60405161025991906119a4565b60405180910390f35b34801561026e57600080fd5b5061028960048036038101906102849190611859565b61074b565b60405161029691906118a1565b60405180910390f35b3480156102ab57600080fd5b506102c660048036038101906102c19190611859565b610768565b6040516102d391906118a1565b60405180910390f35b3480156102e857600080fd5b5061030360048036038101906102fe91906119bf565b610785565b6040516103109190611afc565b60405180910390f35b34801561032557600080fd5b50610340600480360381019061033b9190611968565b61098d565b604051610351959493929190611b35565b60405180910390f35b34801561036657600080fd5b5061036f610a10565b60405161037c91906119a4565b60405180910390f35b61039f600480360381019061039a9190611cce565b610a16565b6040516103ac9190611ed2565b60405180910390f35b3480156103c157600080fd5b506103ca610d55565b6040516103d79190612059565b60405180910390f35b3480156103ec57600080fd5b5061040760048036038101906104029190611968565b611084565b005b34801561041557600080fd5b50610430600480360381019061042b9190611968565b611162565b005b34801561043e57600080fd5b506104476112e9565b60405161045491906119a4565b60405180910390f35b34801561046957600080fd5b50610484600480360381019061047f9190611968565b6112ef565b005b34801561049257600080fd5b506104ad60048036038101906104a89190611968565b61145f565b6040516104c097969594939291906120e3565b60405180910390f35b60006104df8260026116a690919063ffffffff16565b9050919050565b6104ef3361054d565b61052e576040517f08c379a0000000000000000000000000000000000000000000000000000000008152600401610525906121d2565b60405180910390fd5b8060046000848152602001908152602001600020600501819055505050565b60006105638260036116a690919063ffffffff16565b9050919050565b61057e8160006115fe90919063ffffffff16565b50565b61058a336104c9565b6105c9576040517f08c379a00000000000000000000000000000000000000000000000000000000081526004016105c090612264565b60405180910390fd5b80600060038111156105de576105dd611a1d565b5b6006600083815260200190815260200160002060030160149054906101000a900460ff16600381111561061457610613611a1d565b5b1461061e57600080fd5b60016006600084815260200190815260200160002060030160146101000a81548160ff0219169083600381111561065857610657611a1d565b5b02179055505050565b61066a336104c9565b6106a9576040517f08c379a00000000000000000000000000000000000000000000000000000000081526004016106a090612264565b60405180910390fd5b80600060038111156106be576106bd611a1d565b5b6006600083815260200190815260200160002060030160149054906101000a900460ff1660038111156106f4576106f3611a1d565b5b146106fe57600080fd5b60026006600084815260200190815260200160002060030160146101000a81548160ff0219169083600381111561073857610737611a1d565b5b02179055505050565b6000600554905090565b60006107618260006116a690919063ffffffff16565b9050919050565b600061077e8260016116a690919063ffffffff16565b9050919050565b61078d6116ff565b6107963361054d565b6107d5576040517f08c379a00000000000000000000000000000000000000000000000000000000081526004016107cc906121d2565b60405180910390fd5b60006040518060a0016040528060075481526020018581526020013373ffffffffffffffffffffffffffffffffffffffff1681526020018473ffffffffffffffffffffffffffffffffffffffff1681526020016000600381111561083c5761083b611a1d565b5b815250905080600660006007548152602001908152602001600020600082015181600001556020820151816001015560408201518160020160006101000a81548173ffffffffffffffffffffffffffffffffffffffff021916908373ffffffffffffffffffffffffffffffffffffffff16021790555060608201518160030160006101000a81548173ffffffffffffffffffffffffffffffffffffffff021916908373ffffffffffffffffffffffffffffffffffffffff16021790555060808201518160030160146101000a81548160ff0219169083600381111561092457610923611a1d565b5b02179055509050506007600081548092919061093f906122b3565b919050555060016004600086815260200190815260200160002060060160006101000a81548160ff0219169083600481111561097e5761097d611a1d565b5b02179055508091505092915050565b60066020528060005260406000206000915090508060000154908060010154908060020160009054906101000a900473ffffffffffffffffffffffffffffffffffffffff16908060030160009054906101000a900473ffffffffffffffffffffffffffffffffffffffff16908060030160149054906101000a900460ff16905085565b60075481565b610a1e61176c565b610a27336104c9565b610a66576040517f08c379a0000000000000000000000000000000000000000000000000000000008152600401610a5d90612264565b60405180910390fd5b83836000825111610aac576040517f08c379a0000000000000000000000000000000000000000000000000000000008152600401610aa390612347565b60405180910390fd5b6000815111610af0576040517f08c379a0000000000000000000000000000000000000000000000000000000008152600401610ae790612347565b60405180910390fd5b662386f26fc10000341115610b3a576040517f08c379a0000000000000000000000000000000000000000000000000000000008152600401610b31906123b3565b60405180910390fd5b60006040518060e0016040528060055481526020018881526020018781526020013373ffffffffffffffffffffffffffffffffffffffff1681526020013373ffffffffffffffffffffffffffffffffffffffff16815260200186815260200160006004811115610bad57610bac611a1d565b5b815250905080600460006005548152602001908152602001600020600082015181600001556020820151816001019081610be791906125df565b506040820151816002019081610bfd91906125df565b5060608201518160030160006101000a81548173ffffffffffffffffffffffffffffffffffffffff021916908373ffffffffffffffffffffffffffffffffffffffff16021790555060808201518160040160006101000a81548173ffffffffffffffffffffffffffffffffffffffff021916908373ffffffffffffffffffffffffffffffffffffffff16021790555060a0820151816005015560c08201518160060160006101000a81548160ff02191690836004811115610cc157610cc0611a1d565b5b021790555090505060056000815480929190610cdc906122b3565b9190505550806060015173ffffffffffffffffffffffffffffffffffffffff1681600001517f140fc2234ca34fe5ccda9ab4c26954ff383d4037ff8a489f1582531f12a5105f836020015184604001518560a00151604051610d40939291906126b1565b60405180910390a38093505050509392505050565b6060600060055467ffffffffffffffff811115610d7557610d74611ba3565b5b604051908082528060200260200182016040528015610dae57816020015b610d9b61176c565b815260200190600190039081610d935790505b50905060005b60055481101561107c5760006004811115610dd257610dd1611a1d565b5b6004600083815260200190815260200160002060060160009054906101000a900460ff166004811115610e0857610e07611a1d565b5b0361106957600460008281526020019081526020016000206040518060e001604052908160008201548152602001600182018054610e4590612402565b80601f0160208091040260200160405190810160405280929190818152602001828054610e7190612402565b8015610ebe5780601f10610e9357610100808354040283529160200191610ebe565b820191906000526020600020905b815481529060010190602001808311610ea157829003601f168201915b50505050508152602001600282018054610ed790612402565b80601f0160208091040260200160405190810160405280929190818152602001828054610f0390612402565b8015610f505780601f10610f2557610100808354040283529160200191610f50565b820191906000526020600020905b815481529060010190602001808311610f3357829003601f168201915b505050505081526020016003820160009054906101000a900473ffffffffffffffffffffffffffffffffffffffff1673ffffffffffffffffffffffffffffffffffffffff1673ffffffffffffffffffffffffffffffffffffffff1681526020016004820160009054906101000a900473ffffffffffffffffffffffffffffffffffffffff1673ffffffffffffffffffffffffffffffffffffffff1673ffffffffffffffffffffffffffffffffffffffff168152602001600582015481526020016006820160009054906101000a900460ff16600481111561103457611033611a1d565b5b600481111561104657611045611a1d565b5b8152505082828151811061105d5761105c6126f6565b5b60200260200101819052505b8080611074906122b3565b915050610db4565b508091505090565b61108d3361074b565b6110cc576040517f08c379a00000000000000000000000000000000000000000000000000000000081526004016110c390612797565b60405180910390fd5b600480600083815260200190815260200160002060060160006101000a81548160ff0219169083600481111561110557611104611a1d565b5b0217905550336004600083815260200190815260200160002060040160006101000a81548173ffffffffffffffffffffffffffffffffffffffff021916908373ffffffffffffffffffffffffffffffffffffffff16021790555050565b61116b33610768565b6111aa576040517f08c379a00000000000000000000000000000000000000000000000000000000081526004016111a190612829565b60405180910390fd5b80600160038111156111bf576111be611a1d565b5b6006600083815260200190815260200160002060030160149054906101000a900460ff1660038111156111f5576111f4611a1d565b5b146111ff57600080fd5b60006006600084815260200190815260200160002060010154905060026004600083815260200190815260200160002060060160006101000a81548160ff0219169083600481111561125457611253611a1d565b5b02179055506006600084815260200190815260200160002060030160009054906101000a900473ffffffffffffffffffffffffffffffffffffffff166004600083815260200190815260200160002060040160006101000a81548173ffffffffffffffffffffffffffffffffffffffff021916908373ffffffffffffffffffffffffffffffffffffffff160217905550505050565b60055481565b6112f833610768565b611337576040517f08c379a000000000000000000000000000000000000000000000000000000000815260040161132e90612829565b60405180910390fd5b60006006600083815260200190815260200160002060010154905060036006600084815260200190815260200160002060030160146101000a81548160ff0219169083600381111561138c5761138b611a1d565b5b021790555060036004600083815260200190815260200160002060060160006101000a81548160ff021916908360048111156113cb576113ca611a1d565b5b02179055506006600083815260200190815260200160002060020160009054906101000a900473ffffffffffffffffffffffffffffffffffffffff166004600083815260200190815260200160002060040160006101000a81548173ffffffffffffffffffffffffffffffffffffffff021916908373ffffffffffffffffffffffffffffffffffffffff1602179055505050565b600460205280600052604060002060009150905080600001549080600101805461148890612402565b80601f01602080910402602001604051908101604052809291908181526020018280546114b490612402565b80156115015780601f106114d657610100808354040283529160200191611501565b820191906000526020600020905b8154815290600101906020018083116114e457829003601f168201915b50505050509080600201805461151690612402565b80601f016020809104026020016040519081016040528092919081815260200182805461154290612402565b801561158f5780601f106115645761010080835404028352916020019161158f565b820191906000526020600020905b81548152906001019060200180831161157257829003601f168201915b5050505050908060030160009054906101000a900473ffffffffffffffffffffffffffffffffffffffff16908060040160009054906101000a900473ffffffffffffffffffffffffffffffffffffffff16908060050154908060060160009054906101000a900460ff16905087565b61160882826116a6565b15611648576040517f08c379a000000000000000000000000000000000000000000000000000000000815260040161163f906128bb565b60405180910390fd5b60018260000160008373ffffffffffffffffffffffffffffffffffffffff1673ffffffffffffffffffffffffffffffffffffffff16815260200190815260200160002060006101000a81548160ff0219169083151502179055505050565b60008260000160008373ffffffffffffffffffffffffffffffffffffffff1673ffffffffffffffffffffffffffffffffffffffff16815260200190815260200160002060009054906101000a900460ff16905092915050565b6040518060a001604052806000815260200160008152602001600073ffffffffffffffffffffffffffffffffffffffff168152602001600073ffffffffffffffffffffffffffffffffffffffff1681526020016000600381111561176657611765611a1d565b5b81525090565b6040518060e00160405280600081526020016060815260200160608152602001600073ffffffffffffffffffffffffffffffffffffffff168152602001600073ffffffffffffffffffffffffffffffffffffffff16815260200160008152602001600060048111156117e1576117e0611a1d565b5b81525090565b6000604051905090565b600080fd5b600080fd5b600073ffffffffffffffffffffffffffffffffffffffff82169050919050565b6000611826826117fb565b9050919050565b6118368161181b565b811461184157600080fd5b50565b6000813590506118538161182d565b92915050565b60006020828403121561186f5761186e6117f1565b5b600061187d84828501611844565b91505092915050565b60008115159050919050565b61189b81611886565b82525050565b60006020820190506118b66000830184611892565b92915050565b6000819050919050565b6118cf816118bc565b81146118da57600080fd5b50565b6000813590506118ec816118c6565b92915050565b6000819050919050565b611905816118f2565b811461191057600080fd5b50565b600081359050611922816118fc565b92915050565b6000806040838503121561193f5761193e6117f1565b5b600061194d858286016118dd565b925050602061195e85828601611913565b9150509250929050565b60006020828403121561197e5761197d6117f1565b5b600061198c848285016118dd565b91505092915050565b61199e816118bc565b82525050565b60006020820190506119b96000830184611995565b92915050565b600080604083850312156119d6576119d56117f1565b5b60006119e4858286016118dd565b92505060206119f585828601611844565b9150509250929050565b611a08816118bc565b82525050565b611a178161181b565b82525050565b7f4e487b7100000000000000000000000000000000000000000000000000000000600052602160045260246000fd5b60048110611a5d57611a5c611a1d565b5b50565b6000819050611a6e82611a4c565b919050565b6000611a7e82611a60565b9050919050565b611a8e81611a73565b82525050565b60a082016000820151611aaa60008501826119ff565b506020820151611abd60208501826119ff565b506040820151611ad06040850182611a0e565b506060820151611ae36060850182611a0e565b506080820151611af66080850182611a85565b50505050565b600060a082019050611b116000830184611a94565b92915050565b611b208161181b565b82525050565b611b2f81611a73565b82525050565b600060a082019050611b4a6000830188611995565b611b576020830187611995565b611b646040830186611b17565b611b716060830185611b17565b611b7e6080830184611b26565b9695505050505050565b600080fd5b600080fd5b6000601f19601f8301169050919050565b7f4e487b7100000000000000000000000000000000000000000000000000000000600052604160045260246000fd5b611bdb82611b92565b810181811067ffffffffffffffff82111715611bfa57611bf9611ba3565b5b80604052505050565b6000611c0d6117e7565b9050611c198282611bd2565b919050565b600067ffffffffffffffff821115611c3957611c38611ba3565b5b611c4282611b92565b9050602081019050919050565b82818337600083830152505050565b6000611c71611c6c84611c1e565b611c03565b905082815260208101848484011115611c8d57611c8c611b8d565b5b611c98848285611c4f565b509392505050565b600082601f830112611cb557611cb4611b88565b5b8135611cc5848260208601611c5e565b91505092915050565b600080600060608486031215611ce757611ce66117f1565b5b600084013567ffffffffffffffff811115611d0557611d046117f6565b5b611d1186828701611ca0565b935050602084013567ffffffffffffffff811115611d3257611d316117f6565b5b611d3e86828701611ca0565b9250506040611d4f86828701611913565b9150509250925092565b600081519050919050565b600082825260208201905092915050565b60005b83811015611d93578082015181840152602081019050611d78565b60008484015250505050565b6000611daa82611d59565b611db48185611d64565b9350611dc4818560208601611d75565b611dcd81611b92565b840191505092915050565b611de1816118f2565b82525050565b60058110611df857611df7611a1d565b5b50565b6000819050611e0982611de7565b919050565b6000611e1982611dfb565b9050919050565b611e2981611e0e565b82525050565b600060e083016000830151611e4760008601826119ff565b5060208301518482036020860152611e5f8282611d9f565b91505060408301518482036040860152611e798282611d9f565b9150506060830151611e8e6060860182611a0e565b506080830151611ea16080860182611a0e565b5060a0830151611eb460a0860182611dd8565b5060c0830151611ec760c0860182611e20565b508091505092915050565b60006020820190508181036000830152611eec8184611e2f565b905092915050565b600081519050919050565b600082825260208201905092915050565b6000819050602082019050919050565b600060e083016000830151611f3860008601826119ff565b5060208301518482036020860152611f508282611d9f565b91505060408301518482036040860152611f6a8282611d9f565b9150506060830151611f7f6060860182611a0e565b506080830151611f926080860182611a0e565b5060a0830151611fa560a0860182611dd8565b5060c0830151611fb860c0860182611e20565b508091505092915050565b6000611fcf8383611f20565b905092915050565b6000602082019050919050565b6000611fef82611ef4565b611ff98185611eff565b93508360208202850161200b85611f10565b8060005b8581101561204757848403895281516120288582611fc3565b945061203383611fd7565b925060208a0199505060018101905061200f565b50829750879550505050505092915050565b600060208201905081810360008301526120738184611fe4565b905092915050565b600082825260208201905092915050565b600061209782611d59565b6120a1818561207b565b93506120b1818560208601611d75565b6120ba81611b92565b840191505092915050565b6120ce816118f2565b82525050565b6120dd81611e0e565b82525050565b600060e0820190506120f8600083018a611995565b818103602083015261210a818961208c565b9050818103604083015261211e818861208c565b905061212d6060830187611b17565b61213a6080830186611b17565b61214760a08301856120c5565b61215460c08301846120d4565b98975050505050505050565b7f54686973206163636f756e7420686173206e6f206120506861726d616369652060008201527f526f6c6500000000000000000000000000000000000000000000000000000000602082015250565b60006121bc60248361207b565b91506121c782612160565b604082019050919050565b600060208201905081810360008301526121eb816121af565b9050919050565b7f54686973206163636f756e7420686173206e6f2061204d616e7566616374757260008201527f657220526f6c6500000000000000000000000000000000000000000000000000602082015250565b600061224e60278361207b565b9150612259826121f2565b604082019050919050565b6000602082019050818103600083015261227d81612241565b9050919050565b7f4e487b7100000000000000000000000000000000000000000000000000000000600052601160045260246000fd5b60006122be826118bc565b91507fffffffffffffffffffffffffffffffffffffffffffffffffffffffffffffffff82036122f0576122ef612284565b5b600182019050919050565b7f537472696e67206d757374206e6f7420626520656d7074790000000000000000600082015250565b600061233160188361207b565b915061233c826122fb565b602082019050919050565b6000602082019050818103600083015261236081612324565b9050919050565b7f5061796d656e7420616d6f756e7420697320696e73756666696369656e742e00600082015250565b600061239d601f8361207b565b91506123a882612367565b602082019050919050565b600060208201905081810360008301526123cc81612390565b9050919050565b7f4e487b7100000000000000000000000000000000000000000000000000000000600052602260045260246000fd5b6000600282049050600182168061241a57607f821691505b60208210810361242d5761242c6123d3565b5b50919050565b60008190508160005260206000209050919050565b60006020601f8301049050919050565b600082821b905092915050565b6000600883026124957fffffffffffffffffffffffffffffffffffffffffffffffffffffffffffffffff82612458565b61249f8683612458565b95508019841693508086168417925050509392505050565b6000819050919050565b60006124dc6124d76124d2846118bc565b6124b7565b6118bc565b9050919050565b6000819050919050565b6124f6836124c1565b61250a612502826124e3565b848454612465565b825550505050565b600090565b61251f612512565b61252a8184846124ed565b505050565b5b8181101561254e57612543600082612517565b600181019050612530565b5050565b601f8211156125935761256481612433565b61256d84612448565b8101602085101561257c578190505b61259061258885612448565b83018261252f565b50505b505050565b600082821c905092915050565b60006125b660001984600802612598565b1980831691505092915050565b60006125cf83836125a5565b9150826002028217905092915050565b6125e882611d59565b67ffffffffffffffff81111561260157612600611ba3565b5b61260b8254612402565b612616828285612552565b600060209050601f8311600181146126495760008415612637578287015190505b61264185826125c3565b8655506126a9565b601f19841661265786612433565b60005b8281101561267f5784890151825560018201915060208501945060208101905061265a565b8683101561269c5784890151612698601f8916826125a5565b8355505b6001600288020188555050505b505050505050565b600060608201905081810360008301526126cb818661208c565b905081810360208301526126df818561208c565b90506126ee60408301846120c5565b949350505050565b7f4e487b7100000000000000000000000000000000000000000000000000000000600052603260045260246000fd5b7f54686973206163636f756e7420686173206e6f206120436c69656e7420526f6c60008201527f6500000000000000000000000000000000000000000000000000000000000000602082015250565b600061278160218361207b565b915061278c82612725565b604082019050919050565b600060208201905081810360008301526127b081612774565b9050919050565b7f54686973206163636f756e7420686173206e6f2061204469737472696275746f60008201527f7220526f6c650000000000000000000000000000000000000000000000000000602082015250565b600061281360268361207b565b915061281e826127b7565b604082019050919050565b6000602082019050818103600083015261284281612806565b9050919050565b7f54686973206164647265737320616c726561647920686173207468697320726f60008201527f6c65000000000000000000000000000000000000000000000000000000000000602082015250565b60006128a560228361207b565b91506128b082612849565b604082019050919050565b600060208201905081810360008301526128d481612898565b905091905056fea264697066735822122095bbfebaf43eec0649ce7f47dbf9b6d8d156ac16a5309904d1096547b60905b464736f6c63430008110033",
  "immutableReferences": {},
  "source": "// SPDX-License-Identifier: MIT\r\npragma solidity ^0.8.0;\r\nimport './roles/Client.sol';\r\nimport './roles/Distributor.sol';\r\nimport './roles/Manufacturer.sol';\r\nimport './roles/Pharmacy.sol';\r\n\r\ncontract SupplyChain is Client,Distributor,Manufacturer,Pharmacy{\r\n    enum OrderStatus {Ordered ,Accepted , Declined, Completed}\r\n    enum Status {Created  , Ordered , Delivering , Delivered , Sold }\r\n    mapping(uint => Drug) public drugs; \r\n    uint public drugsNumber=0;   \r\n\r\n    mapping(uint => Order) public orders; \r\n    uint public orderNumber=0;   \r\n    struct Drug {\r\n        uint id ;\r\n        string name;\r\n        string description;\r\n        address manufacturer;\r\n        address ownerID;\r\n        int price;\r\n        Status Status;\r\n    }\r\n    struct Order{\r\n        uint id ;\r\n        uint drugIndex;\r\n        address pharmacy;\r\n        address distributor;\r\n        OrderStatus Status;\r\n    }\r\n    constructor(){       \r\n\r\n    }\r\n    function getDrugsNumber() public view returns (uint) {\r\n    return drugsNumber;\r\n}   \r\nfunction getAllDrug() public view returns (Drug[] memory) {\r\n    Drug[] memory drugsAvailable = new Drug[](drugsNumber);\r\n    for (uint i = 0; i < drugsNumber; i++) {    \r\n        if (drugs[i].Status == Status.Created){\r\n        drugsAvailable[i] = drugs[i];}\r\n    }\r\n    return drugsAvailable;\r\n}\r\n    modifier orderCond(uint _index){\r\n        require(drugs[_index].manufacturer != msg.sender ,\"erroooooooooooor\");\r\n    _;\r\n    }\r\n    modifier DeliveringCond(uint _index){\r\n        require(orders[_index].Status == OrderStatus.Accepted);\r\n    _;\r\n    }\r\n    modifier AcceptCond(uint _Index){\r\n        require(orders[_Index].Status == OrderStatus.Ordered);\r\n        _;\r\n    }\r\n    modifier BuyCond(uint _Index){\r\n        require(orders[_Index].Status == OrderStatus.Completed);\r\n        require(drugs[orders[_Index].drugIndex].Status == Status.Delivered);\r\n        _;\r\n    }\r\n    modifier nameDrug(string memory _name1,string memory _description1){\r\n        require(bytes(_name1).length > 0, \"String must not be empty\");\r\n        require(bytes(_description1).length > 0, \"String must not be empty\");\r\n        _;\r\n    }\r\nevent DrugAdded(uint indexed id, string name, string description, address indexed manufacturer, int price);\r\n\r\nfunction drugCreate(string memory name1, string memory description1, int price) public payable onlyManufacturer nameDrug(name1, description1) returns (Drug memory) {\r\n    require(msg.value <= 0.01 ether, \"Payment amount is insufficient.\");\r\n    Drug memory drug = Drug({\r\n        id : drugsNumber ,\r\n        name : name1,\r\n        description : description1,\r\n        manufacturer : msg.sender,\r\n        Status : Status.Created,\r\n        price : price ,\r\n        ownerID : msg.sender\r\n    });\r\n\r\n    drugs[drugsNumber]= drug;\r\n    drugsNumber++;\r\n    emit DrugAdded(drug.id, drug.name, drug.description, drug.manufacturer, drug.price);\r\n    return drug;\r\n}\r\n\r\n//orderCond(index)\r\n    function orderDrug(uint index , address distributor ) public onlyPharmacie  returns(Order memory) {\r\n        Order memory order = Order({\r\n            id : orderNumber ,\r\n            drugIndex : index,\r\n            pharmacy : msg.sender,\r\n            distributor: distributor,\r\n            Status : OrderStatus.Ordered\r\n        });\r\n        orders[orderNumber]= order;\r\n        orderNumber++;\r\n        drugs[index].Status = Status.Ordered;\r\n        return order;\r\n    }\r\n    function priceChanger(uint index , int price) public onlyPharmacie {\r\n        drugs[index].price = price;\r\n    }\r\n    function AcceptOrder(uint orderIndex) public onlyManufacturer AcceptCond(orderIndex) {\r\n        orders[orderIndex].Status = OrderStatus.Accepted;\r\n    }\r\n    function DeclineOrder(uint orderIndex) public onlyManufacturer AcceptCond(orderIndex) {\r\n    orders[orderIndex].Status = OrderStatus.Declined;\r\n    }\r\n    function startDeliverdrug(uint orderIndex) public onlyDistributor DeliveringCond(orderIndex) {\r\n        uint index = orders[orderIndex].drugIndex;\r\n        drugs[index].Status = Status.Delivering;\r\n        drugs[index].ownerID = orders[orderIndex].distributor;\r\n\r\n    }\r\n    function endDelivering(uint orderIndex) public onlyDistributor {\r\n        uint index = orders[orderIndex].drugIndex;\r\n        orders[orderIndex].Status = OrderStatus.Completed;\r\n        drugs[index].Status = Status.Delivered;\r\n        drugs[index].ownerID = orders[orderIndex].pharmacy;\r\n    }\r\n    function buyDrug(uint index) public onlyClient {\r\n        drugs[index].Status = Status.Sold;\r\n        drugs[index].ownerID = msg.sender;\r\n    }\r\n    \r\n\r\n}",
  "sourcePath": "D:\\PCD\\supply\\SupplyChain\\contracts\\SupplyChain.sol",
  "compiler": {
    "name": "solc",
    "version": "0.8.17+commit.8df45f5f.Emscripten.clang"
  },
  "schemaVersion": "3.4.11",
  "updatedAt": "2023-03-25T04:46:10.078Z",
  "networkType": "ethereum",
  "devdoc": {
    "kind": "dev",
    "methods": {},
    "version": 1
  },
  "userdoc": {
    "kind": "user",
    "methods": {},
    "version": 1
  }
}