{
  "contractName": "SupplyChain",
  "abi": [
    {
      "inputs": [],
      "stateMutability": "nonpayable",
      "type": "constructor"
    },
    {
      "inputs": [
        {
          "internalType": "address",
          "name": "account",
          "type": "address"
        }
      ],
      "name": "addClient",
      "outputs": [],
      "stateMutability": "nonpayable",
      "type": "function"
    },
    {
      "inputs": [
        {
          "internalType": "uint256",
          "name": "",
          "type": "uint256"
        }
      ],
      "name": "drugs",
      "outputs": [
        {
          "internalType": "uint256",
          "name": "id",
          "type": "uint256"
        },
        {
          "internalType": "string",
          "name": "name",
          "type": "string"
        },
        {
          "internalType": "string",
          "name": "description",
          "type": "string"
        },
        {
          "internalType": "address",
          "name": "manufacturer",
          "type": "address"
        },
        {
          "internalType": "address",
          "name": "ownerID",
          "type": "address"
        },
        {
          "internalType": "int256",
          "name": "price",
          "type": "int256"
        },
        {
          "internalType": "enum SupplyChain.Status",
          "name": "Status",
          "type": "uint8"
        }
      ],
      "stateMutability": "view",
      "type": "function",
      "constant": true
    },
    {
      "inputs": [],
      "name": "drugsNumber",
      "outputs": [
        {
          "internalType": "uint256",
          "name": "",
          "type": "uint256"
        }
      ],
      "stateMutability": "view",
      "type": "function",
      "constant": true
    },
    {
      "inputs": [
        {
          "internalType": "address",
          "name": "account",
          "type": "address"
        }
      ],
      "name": "isClient",
      "outputs": [
        {
          "internalType": "bool",
          "name": "",
          "type": "bool"
        }
      ],
      "stateMutability": "view",
      "type": "function",
      "constant": true
    },
    {
      "inputs": [
        {
          "internalType": "address",
          "name": "account",
          "type": "address"
        }
      ],
      "name": "isDistributor",
      "outputs": [
        {
          "internalType": "bool",
          "name": "",
          "type": "bool"
        }
      ],
      "stateMutability": "view",
      "type": "function",
      "constant": true
    },
    {
      "inputs": [
        {
          "internalType": "address",
          "name": "account",
          "type": "address"
        }
      ],
      "name": "isManufacturer",
      "outputs": [
        {
          "internalType": "bool",
          "name": "",
          "type": "bool"
        }
      ],
      "stateMutability": "view",
      "type": "function",
      "constant": true
    },
    {
      "inputs": [
        {
          "internalType": "address",
          "name": "account",
          "type": "address"
        }
      ],
      "name": "isPharmacie",
      "outputs": [
        {
          "internalType": "bool",
          "name": "",
          "type": "bool"
        }
      ],
      "stateMutability": "view",
      "type": "function",
      "constant": true
    },
    {
      "inputs": [],
      "name": "orderNumber",
      "outputs": [
        {
          "internalType": "uint256",
          "name": "",
          "type": "uint256"
        }
      ],
      "stateMutability": "view",
      "type": "function",
      "constant": true
    },
    {
      "inputs": [
        {
          "internalType": "uint256",
          "name": "",
          "type": "uint256"
        }
      ],
      "name": "orders",
      "outputs": [
        {
          "internalType": "uint256",
          "name": "id",
          "type": "uint256"
        },
        {
          "internalType": "uint256",
          "name": "drugIndex",
          "type": "uint256"
        },
        {
          "internalType": "address",
          "name": "pharmacy",
          "type": "address"
        },
        {
          "internalType": "address",
          "name": "distributor",
          "type": "address"
        },
        {
          "internalType": "enum SupplyChain.OrderStatus",
          "name": "Status",
          "type": "uint8"
        }
      ],
      "stateMutability": "view",
      "type": "function",
      "constant": true
    },
    {
      "inputs": [],
      "name": "getDrugsNumber",
      "outputs": [
        {
          "internalType": "uint256",
          "name": "",
          "type": "uint256"
        }
      ],
      "stateMutability": "view",
      "type": "function",
      "constant": true
    },
    {
      "inputs": [
        {
          "internalType": "string",
          "name": "name1",
          "type": "string"
        },
        {
          "internalType": "string",
          "name": "description1",
          "type": "string"
        },
        {
          "internalType": "int256",
          "name": "price",
          "type": "int256"
        }
      ],
      "name": "drugCreate",
      "outputs": [
        {
          "components": [
            {
              "internalType": "uint256",
              "name": "id",
              "type": "uint256"
            },
            {
              "internalType": "string",
              "name": "name",
              "type": "string"
            },
            {
              "internalType": "string",
              "name": "description",
              "type": "string"
            },
            {
              "internalType": "address",
              "name": "manufacturer",
              "type": "address"
            },
            {
              "internalType": "address",
              "name": "ownerID",
              "type": "address"
            },
            {
              "internalType": "int256",
              "name": "price",
              "type": "int256"
            },
            {
              "internalType": "enum SupplyChain.Status",
              "name": "Status",
              "type": "uint8"
            }
          ],
          "internalType": "struct SupplyChain.Drug",
          "name": "",
          "type": "tuple"
        }
      ],
      "stateMutability": "nonpayable",
      "type": "function"
    },
    {
      "inputs": [
        {
          "internalType": "uint256",
          "name": "index",
          "type": "uint256"
        },
        {
          "internalType": "address",
          "name": "distributor",
          "type": "address"
        }
      ],
      "name": "orderDrug",
      "outputs": [
        {
          "components": [
            {
              "internalType": "uint256",
              "name": "id",
              "type": "uint256"
            },
            {
              "internalType": "uint256",
              "name": "drugIndex",
              "type": "uint256"
            },
            {
              "internalType": "address",
              "name": "pharmacy",
              "type": "address"
            },
            {
              "internalType": "address",
              "name": "distributor",
              "type": "address"
            },
            {
              "internalType": "enum SupplyChain.OrderStatus",
              "name": "Status",
              "type": "uint8"
            }
          ],
          "internalType": "struct SupplyChain.Order",
          "name": "",
          "type": "tuple"
        }
      ],
      "stateMutability": "nonpayable",
      "type": "function"
    },
    {
      "inputs": [
        {
          "internalType": "uint256",
          "name": "index",
          "type": "uint256"
        },
        {
          "internalType": "int256",
          "name": "price",
          "type": "int256"
        }
      ],
      "name": "priceChanger",
      "outputs": [],
      "stateMutability": "nonpayable",
      "type": "function"
    },
    {
      "inputs": [
        {
          "internalType": "uint256",
          "name": "orderIndex",
          "type": "uint256"
        }
      ],
      "name": "AcceptOrder",
      "outputs": [],
      "stateMutability": "nonpayable",
      "type": "function"
    },
    {
      "inputs": [
        {
          "internalType": "uint256",
          "name": "orderIndex",
          "type": "uint256"
        }
      ],
      "name": "DeclineOrder",
      "outputs": [],
      "stateMutability": "nonpayable",
      "type": "function"
    },
    {
      "inputs": [
        {
          "internalType": "uint256",
          "name": "orderIndex",
          "type": "uint256"
        }
      ],
      "name": "startDeliverdrug",
      "outputs": [],
      "stateMutability": "nonpayable",
      "type": "function"
    },
    {
      "inputs": [
        {
          "internalType": "uint256",
          "name": "orderIndex",
          "type": "uint256"
        }
      ],
      "name": "endDelivering",
      "outputs": [],
      "stateMutability": "nonpayable",
      "type": "function"
    },
    {
      "inputs": [
        {
          "internalType": "uint256",
          "name": "index",
          "type": "uint256"
        }
      ],
      "name": "buyDrug",
      "outputs": [],
      "stateMutability": "nonpayable",
      "type": "function"
    }
  ],
  "bytecode": "0x6080604052600060055560006007553480156200001b57600080fd5b506200002d33620000e560201b60201c565b6200003e336200010360201b60201c565b6200004f336200012160201b60201c565b62000060336200013f60201b60201c565b620000de6040518060400160405280600481526020017f74657374000000000000000000000000000000000000000000000000000000008152506040518060400160405280600481526020017f7465737400000000000000000000000000000000000000000000000000000000815250600c6200015d60201b60201c565b5062000b77565b620001008160006200040a60201b620011181790919060201c565b50565b6200011e8160016200040a60201b620011181790919060201c565b50565b6200013c8160026200040a60201b620011181790919060201c565b50565b6200015a8160036200040a60201b620011181790919060201c565b50565b620001676200053a565b6200017833620004bd60201b60201c565b620001ba576040517f08c379a0000000000000000000000000000000000000000000000000000000008152600401620001b1906200063f565b60405180910390fd5b8383600082511162000203576040517f08c379a0000000000000000000000000000000000000000000000000000000008152600401620001fa90620006b1565b60405180910390fd5b60008151116200024a576040517f08c379a00000000000000000000000000000000000000000000000000000000081526004016200024190620006b1565b60405180910390fd5b60006040518060e0016040528060055481526020018881526020018781526020013373ffffffffffffffffffffffffffffffffffffffff1681526020013373ffffffffffffffffffffffffffffffffffffffff16815260200186815260200160006004811115620002c057620002bf620006d3565b5b815250905080600460006005548152602001908152602001600020600082015181600001556020820151816001019081620002fc91906200097c565b5060408201518160020190816200031491906200097c565b5060608201518160030160006101000a81548173ffffffffffffffffffffffffffffffffffffffff021916908373ffffffffffffffffffffffffffffffffffffffff16021790555060808201518160040160006101000a81548173ffffffffffffffffffffffffffffffffffffffff021916908373ffffffffffffffffffffffffffffffffffffffff16021790555060a0820151816005015560c08201518160060160006101000a81548160ff02191690836004811115620003db57620003da620006d3565b5b021790555090505060056000815480929190620003f89062000a92565b91905055508093505050509392505050565b6200041c8282620004e160201b60201c565b156200045f576040517f08c379a0000000000000000000000000000000000000000000000000000000008152600401620004569062000b55565b60405180910390fd5b60018260000160008373ffffffffffffffffffffffffffffffffffffffff1673ffffffffffffffffffffffffffffffffffffffff16815260200190815260200160002060006101000a81548160ff0219169083151502179055505050565b6000620004da826002620004e160201b620011c01790919060201c565b9050919050565b60008260000160008373ffffffffffffffffffffffffffffffffffffffff1673ffffffffffffffffffffffffffffffffffffffff16815260200190815260200160002060009054906101000a900460ff16905092915050565b6040518060e00160405280600081526020016060815260200160608152602001600073ffffffffffffffffffffffffffffffffffffffff168152602001600073ffffffffffffffffffffffffffffffffffffffff1681526020016000815260200160006004811115620005b257620005b1620006d3565b5b81525090565b600082825260208201905092915050565b7f54686973206163636f756e7420686173206e6f2061204d616e7566616374757260008201527f657220526f6c6500000000000000000000000000000000000000000000000000602082015250565b600062000627602783620005b8565b91506200063482620005c9565b604082019050919050565b600060208201905081810360008301526200065a8162000618565b9050919050565b7f537472696e67206d757374206e6f7420626520656d7074790000000000000000600082015250565b600062000699601883620005b8565b9150620006a68262000661565b602082019050919050565b60006020820190508181036000830152620006cc816200068a565b9050919050565b7f4e487b7100000000000000000000000000000000000000000000000000000000600052602160045260246000fd5b600081519050919050565b7f4e487b7100000000000000000000000000000000000000000000000000000000600052604160045260246000fd5b7f4e487b7100000000000000000000000000000000000000000000000000000000600052602260045260246000fd5b600060028204905060018216806200078457607f821691505b6020821081036200079a57620007996200073c565b5b50919050565b60008190508160005260206000209050919050565b60006020601f8301049050919050565b600082821b905092915050565b600060088302620008047fffffffffffffffffffffffffffffffffffffffffffffffffffffffffffffffff82620007c5565b620008108683620007c5565b95508019841693508086168417925050509392505050565b6000819050919050565b6000819050919050565b60006200085d62000857620008518462000828565b62000832565b62000828565b9050919050565b6000819050919050565b62000879836200083c565b62000891620008888262000864565b848454620007d2565b825550505050565b600090565b620008a862000899565b620008b58184846200086e565b505050565b5b81811015620008dd57620008d16000826200089e565b600181019050620008bb565b5050565b601f8211156200092c57620008f681620007a0565b6200090184620007b5565b8101602085101562000911578190505b620009296200092085620007b5565b830182620008ba565b50505b505050565b600082821c905092915050565b6000620009516000198460080262000931565b1980831691505092915050565b60006200096c83836200093e565b9150826002028217905092915050565b620009878262000702565b67ffffffffffffffff811115620009a357620009a26200070d565b5b620009af82546200076b565b620009bc828285620008e1565b600060209050601f831160018114620009f45760008415620009df578287015190505b620009eb85826200095e565b86555062000a5b565b601f19841662000a0486620007a0565b60005b8281101562000a2e5784890151825560018201915060208501945060208101905062000a07565b8683101562000a4e578489015162000a4a601f8916826200093e565b8355505b6001600288020188555050505b505050505050565b7f4e487b7100000000000000000000000000000000000000000000000000000000600052601160045260246000fd5b600062000a9f8262000828565b91507fffffffffffffffffffffffffffffffffffffffffffffffffffffffffffffffff820362000ad45762000ad362000a63565b5b600182019050919050565b7f54686973206164647265737320616c726561647920686173207468697320726f60008201527f6c65000000000000000000000000000000000000000000000000000000000000602082015250565b600062000b3d602283620005b8565b915062000b4a8262000adf565b604082019050919050565b6000602082019050818103600083015262000b708162000b2e565b9050919050565b6121c48062000b876000396000f3fe608060405234801561001057600080fd5b50600436106101165760003560e01c8063a3a6fc44116100a2578063d11daa6a11610071578063d11daa6a1461031b578063dc6a7c5014610337578063f007151214610353578063f8f73a3e14610371578063fca5e61e1461038d57610116565b8063a3a6fc4414610269578063a85c38ef14610299578063b04dd81b146102cd578063b230133c146102eb57610116565b806359c4db88116100e957806359c4db88146101b357806368f46b15146101cf57806376f69274146101eb57806384b7964f146102095780638f0c86fa1461023957610116565b806317d4a4911461011b5780633e25794c1461014b5780633ee2abe21461016757806343928cfd14610197575b600080fd5b61013560048036038101906101309190611373565b6103c3565b60405161014291906113bb565b60405180910390f35b61016560048036038101906101609190611442565b6103e0565b005b610181600480360381019061017c9190611373565b610447565b60405161018e91906113bb565b60405180910390f35b6101b160048036038101906101ac9190611373565b610464565b005b6101cd60048036038101906101c89190611482565b61047b565b005b6101e960048036038101906101e49190611482565b61055b565b005b6101f361063b565b60405161020091906114be565b60405180910390f35b610223600480360381019061021e9190611373565b610645565b60405161023091906113bb565b60405180910390f35b610253600480360381019061024e9190611373565b610662565b60405161026091906113bb565b60405180910390f35b610283600480360381019061027e91906114d9565b61067f565b6040516102909190611616565b60405180910390f35b6102b360048036038101906102ae9190611482565b610887565b6040516102c495949392919061164f565b60405180910390f35b6102d561090a565b6040516102e291906114be565b60405180910390f35b610305600480360381019061030091906117e8565b610910565b60405161031291906119ec565b60405180910390f35b61033560048036038101906103309190611482565b610b9e565b005b610351600480360381019061034c9190611482565b610c7c565b005b61035b610e03565b60405161036891906114be565b60405180910390f35b61038b60048036038101906103869190611482565b610e09565b005b6103a760048036038101906103a29190611482565b610f79565b6040516103ba9796959493929190611a76565b60405180910390f35b60006103d98260026111c090919063ffffffff16565b9050919050565b6103e933610447565b610428576040517f08c379a000000000000000000000000000000000000000000000000000000000815260040161041f90611b65565b60405180910390fd5b8060046000848152602001908152602001600020600501819055505050565b600061045d8260036111c090919063ffffffff16565b9050919050565b61047881600061111890919063ffffffff16565b50565b610484336103c3565b6104c3576040517f08c379a00000000000000000000000000000000000000000000000000000000081526004016104ba90611bf7565b60405180910390fd5b80600060038111156104d8576104d7611537565b5b6006600083815260200190815260200160002060030160149054906101000a900460ff16600381111561050e5761050d611537565b5b1461051857600080fd5b60016006600084815260200190815260200160002060030160146101000a81548160ff0219169083600381111561055257610551611537565b5b02179055505050565b610564336103c3565b6105a3576040517f08c379a000000000000000000000000000000000000000000000000000000000815260040161059a90611bf7565b60405180910390fd5b80600060038111156105b8576105b7611537565b5b6006600083815260200190815260200160002060030160149054906101000a900460ff1660038111156105ee576105ed611537565b5b146105f857600080fd5b60026006600084815260200190815260200160002060030160146101000a81548160ff0219169083600381111561063257610631611537565b5b02179055505050565b6000600554905090565b600061065b8260006111c090919063ffffffff16565b9050919050565b60006106788260016111c090919063ffffffff16565b9050919050565b610687611219565b61069033610447565b6106cf576040517f08c379a00000000000000000000000000000000000000000000000000000000081526004016106c690611b65565b60405180910390fd5b60006040518060a0016040528060075481526020018581526020013373ffffffffffffffffffffffffffffffffffffffff1681526020018473ffffffffffffffffffffffffffffffffffffffff1681526020016000600381111561073657610735611537565b5b815250905080600660006007548152602001908152602001600020600082015181600001556020820151816001015560408201518160020160006101000a81548173ffffffffffffffffffffffffffffffffffffffff021916908373ffffffffffffffffffffffffffffffffffffffff16021790555060608201518160030160006101000a81548173ffffffffffffffffffffffffffffffffffffffff021916908373ffffffffffffffffffffffffffffffffffffffff16021790555060808201518160030160146101000a81548160ff0219169083600381111561081e5761081d611537565b5b02179055509050506007600081548092919061083990611c46565b919050555060016004600086815260200190815260200160002060060160006101000a81548160ff0219169083600481111561087857610877611537565b5b02179055508091505092915050565b60066020528060005260406000206000915090508060000154908060010154908060020160009054906101000a900473ffffffffffffffffffffffffffffffffffffffff16908060030160009054906101000a900473ffffffffffffffffffffffffffffffffffffffff16908060030160149054906101000a900460ff16905085565b60075481565b610918611286565b610921336103c3565b610960576040517f08c379a000000000000000000000000000000000000000000000000000000000815260040161095790611bf7565b60405180910390fd5b838360008251116109a6576040517f08c379a000000000000000000000000000000000000000000000000000000000815260040161099d90611cda565b60405180910390fd5b60008151116109ea576040517f08c379a00000000000000000000000000000000000000000000000000000000081526004016109e190611cda565b60405180910390fd5b60006040518060e0016040528060055481526020018881526020018781526020013373ffffffffffffffffffffffffffffffffffffffff1681526020013373ffffffffffffffffffffffffffffffffffffffff16815260200186815260200160006004811115610a5d57610a5c611537565b5b815250905080600460006005548152602001908152602001600020600082015181600001556020820151816001019081610a979190611f06565b506040820151816002019081610aad9190611f06565b5060608201518160030160006101000a81548173ffffffffffffffffffffffffffffffffffffffff021916908373ffffffffffffffffffffffffffffffffffffffff16021790555060808201518160040160006101000a81548173ffffffffffffffffffffffffffffffffffffffff021916908373ffffffffffffffffffffffffffffffffffffffff16021790555060a0820151816005015560c08201518160060160006101000a81548160ff02191690836004811115610b7157610b70611537565b5b021790555090505060056000815480929190610b8c90611c46565b91905055508093505050509392505050565b610ba733610645565b610be6576040517f08c379a0000000000000000000000000000000000000000000000000000000008152600401610bdd9061204a565b60405180910390fd5b600480600083815260200190815260200160002060060160006101000a81548160ff02191690836004811115610c1f57610c1e611537565b5b0217905550336004600083815260200190815260200160002060040160006101000a81548173ffffffffffffffffffffffffffffffffffffffff021916908373ffffffffffffffffffffffffffffffffffffffff16021790555050565b610c8533610662565b610cc4576040517f08c379a0000000000000000000000000000000000000000000000000000000008152600401610cbb906120dc565b60405180910390fd5b8060016003811115610cd957610cd8611537565b5b6006600083815260200190815260200160002060030160149054906101000a900460ff166003811115610d0f57610d0e611537565b5b14610d1957600080fd5b60006006600084815260200190815260200160002060010154905060026004600083815260200190815260200160002060060160006101000a81548160ff02191690836004811115610d6e57610d6d611537565b5b02179055506006600084815260200190815260200160002060030160009054906101000a900473ffffffffffffffffffffffffffffffffffffffff166004600083815260200190815260200160002060040160006101000a81548173ffffffffffffffffffffffffffffffffffffffff021916908373ffffffffffffffffffffffffffffffffffffffff160217905550505050565b60055481565b610e1233610662565b610e51576040517f08c379a0000000000000000000000000000000000000000000000000000000008152600401610e48906120dc565b60405180910390fd5b60006006600083815260200190815260200160002060010154905060036006600084815260200190815260200160002060030160146101000a81548160ff02191690836003811115610ea657610ea5611537565b5b021790555060036004600083815260200190815260200160002060060160006101000a81548160ff02191690836004811115610ee557610ee4611537565b5b02179055506006600083815260200190815260200160002060020160009054906101000a900473ffffffffffffffffffffffffffffffffffffffff166004600083815260200190815260200160002060040160006101000a81548173ffffffffffffffffffffffffffffffffffffffff021916908373ffffffffffffffffffffffffffffffffffffffff1602179055505050565b6004602052806000526040600020600091509050806000015490806001018054610fa290611d29565b80601f0160208091040260200160405190810160405280929190818152602001828054610fce90611d29565b801561101b5780601f10610ff05761010080835404028352916020019161101b565b820191906000526020600020905b815481529060010190602001808311610ffe57829003601f168201915b50505050509080600201805461103090611d29565b80601f016020809104026020016040519081016040528092919081815260200182805461105c90611d29565b80156110a95780601f1061107e576101008083540402835291602001916110a9565b820191906000526020600020905b81548152906001019060200180831161108c57829003601f168201915b5050505050908060030160009054906101000a900473ffffffffffffffffffffffffffffffffffffffff16908060040160009054906101000a900473ffffffffffffffffffffffffffffffffffffffff16908060050154908060060160009054906101000a900460ff16905087565b61112282826111c0565b15611162576040517f08c379a00000000000000000000000000000000000000000000000000000000081526004016111599061216e565b60405180910390fd5b60018260000160008373ffffffffffffffffffffffffffffffffffffffff1673ffffffffffffffffffffffffffffffffffffffff16815260200190815260200160002060006101000a81548160ff0219169083151502179055505050565b60008260000160008373ffffffffffffffffffffffffffffffffffffffff1673ffffffffffffffffffffffffffffffffffffffff16815260200190815260200160002060009054906101000a900460ff16905092915050565b6040518060a001604052806000815260200160008152602001600073ffffffffffffffffffffffffffffffffffffffff168152602001600073ffffffffffffffffffffffffffffffffffffffff168152602001600060038111156112805761127f611537565b5b81525090565b6040518060e00160405280600081526020016060815260200160608152602001600073ffffffffffffffffffffffffffffffffffffffff168152602001600073ffffffffffffffffffffffffffffffffffffffff16815260200160008152602001600060048111156112fb576112fa611537565b5b81525090565b6000604051905090565b600080fd5b600080fd5b600073ffffffffffffffffffffffffffffffffffffffff82169050919050565b600061134082611315565b9050919050565b61135081611335565b811461135b57600080fd5b50565b60008135905061136d81611347565b92915050565b6000602082840312156113895761138861130b565b5b60006113978482850161135e565b91505092915050565b60008115159050919050565b6113b5816113a0565b82525050565b60006020820190506113d060008301846113ac565b92915050565b6000819050919050565b6113e9816113d6565b81146113f457600080fd5b50565b600081359050611406816113e0565b92915050565b6000819050919050565b61141f8161140c565b811461142a57600080fd5b50565b60008135905061143c81611416565b92915050565b600080604083850312156114595761145861130b565b5b6000611467858286016113f7565b92505060206114788582860161142d565b9150509250929050565b6000602082840312156114985761149761130b565b5b60006114a6848285016113f7565b91505092915050565b6114b8816113d6565b82525050565b60006020820190506114d360008301846114af565b92915050565b600080604083850312156114f0576114ef61130b565b5b60006114fe858286016113f7565b925050602061150f8582860161135e565b9150509250929050565b611522816113d6565b82525050565b61153181611335565b82525050565b7f4e487b7100000000000000000000000000000000000000000000000000000000600052602160045260246000fd5b6004811061157757611576611537565b5b50565b600081905061158882611566565b919050565b60006115988261157a565b9050919050565b6115a88161158d565b82525050565b60a0820160008201516115c46000850182611519565b5060208201516115d76020850182611519565b5060408201516115ea6040850182611528565b5060608201516115fd6060850182611528565b506080820151611610608085018261159f565b50505050565b600060a08201905061162b60008301846115ae565b92915050565b61163a81611335565b82525050565b6116498161158d565b82525050565b600060a08201905061166460008301886114af565b61167160208301876114af565b61167e6040830186611631565b61168b6060830185611631565b6116986080830184611640565b9695505050505050565b600080fd5b600080fd5b6000601f19601f8301169050919050565b7f4e487b7100000000000000000000000000000000000000000000000000000000600052604160045260246000fd5b6116f5826116ac565b810181811067ffffffffffffffff82111715611714576117136116bd565b5b80604052505050565b6000611727611301565b905061173382826116ec565b919050565b600067ffffffffffffffff821115611753576117526116bd565b5b61175c826116ac565b9050602081019050919050565b82818337600083830152505050565b600061178b61178684611738565b61171d565b9050828152602081018484840111156117a7576117a66116a7565b5b6117b2848285611769565b509392505050565b600082601f8301126117cf576117ce6116a2565b5b81356117df848260208601611778565b91505092915050565b6000806000606084860312156118015761180061130b565b5b600084013567ffffffffffffffff81111561181f5761181e611310565b5b61182b868287016117ba565b935050602084013567ffffffffffffffff81111561184c5761184b611310565b5b611858868287016117ba565b92505060406118698682870161142d565b9150509250925092565b600081519050919050565b600082825260208201905092915050565b60005b838110156118ad578082015181840152602081019050611892565b60008484015250505050565b60006118c482611873565b6118ce818561187e565b93506118de81856020860161188f565b6118e7816116ac565b840191505092915050565b6118fb8161140c565b82525050565b6005811061191257611911611537565b5b50565b600081905061192382611901565b919050565b600061193382611915565b9050919050565b61194381611928565b82525050565b600060e0830160008301516119616000860182611519565b506020830151848203602086015261197982826118b9565b9150506040830151848203604086015261199382826118b9565b91505060608301516119a86060860182611528565b5060808301516119bb6080860182611528565b5060a08301516119ce60a08601826118f2565b5060c08301516119e160c086018261193a565b508091505092915050565b60006020820190508181036000830152611a068184611949565b905092915050565b600082825260208201905092915050565b6000611a2a82611873565b611a348185611a0e565b9350611a4481856020860161188f565b611a4d816116ac565b840191505092915050565b611a618161140c565b82525050565b611a7081611928565b82525050565b600060e082019050611a8b600083018a6114af565b8181036020830152611a9d8189611a1f565b90508181036040830152611ab18188611a1f565b9050611ac06060830187611631565b611acd6080830186611631565b611ada60a0830185611a58565b611ae760c0830184611a67565b98975050505050505050565b7f54686973206163636f756e7420686173206e6f206120506861726d616369652060008201527f526f6c6500000000000000000000000000000000000000000000000000000000602082015250565b6000611b4f602483611a0e565b9150611b5a82611af3565b604082019050919050565b60006020820190508181036000830152611b7e81611b42565b9050919050565b7f54686973206163636f756e7420686173206e6f2061204d616e7566616374757260008201527f657220526f6c6500000000000000000000000000000000000000000000000000602082015250565b6000611be1602783611a0e565b9150611bec82611b85565b604082019050919050565b60006020820190508181036000830152611c1081611bd4565b9050919050565b7f4e487b7100000000000000000000000000000000000000000000000000000000600052601160045260246000fd5b6000611c51826113d6565b91507fffffffffffffffffffffffffffffffffffffffffffffffffffffffffffffffff8203611c8357611c82611c17565b5b600182019050919050565b7f537472696e67206d757374206e6f7420626520656d7074790000000000000000600082015250565b6000611cc4601883611a0e565b9150611ccf82611c8e565b602082019050919050565b60006020820190508181036000830152611cf381611cb7565b9050919050565b7f4e487b7100000000000000000000000000000000000000000000000000000000600052602260045260246000fd5b60006002820490506001821680611d4157607f821691505b602082108103611d5457611d53611cfa565b5b50919050565b60008190508160005260206000209050919050565b60006020601f8301049050919050565b600082821b905092915050565b600060088302611dbc7fffffffffffffffffffffffffffffffffffffffffffffffffffffffffffffffff82611d7f565b611dc68683611d7f565b95508019841693508086168417925050509392505050565b6000819050919050565b6000611e03611dfe611df9846113d6565b611dde565b6113d6565b9050919050565b6000819050919050565b611e1d83611de8565b611e31611e2982611e0a565b848454611d8c565b825550505050565b600090565b611e46611e39565b611e51818484611e14565b505050565b5b81811015611e7557611e6a600082611e3e565b600181019050611e57565b5050565b601f821115611eba57611e8b81611d5a565b611e9484611d6f565b81016020851015611ea3578190505b611eb7611eaf85611d6f565b830182611e56565b50505b505050565b600082821c905092915050565b6000611edd60001984600802611ebf565b1980831691505092915050565b6000611ef68383611ecc565b9150826002028217905092915050565b611f0f82611873565b67ffffffffffffffff811115611f2857611f276116bd565b5b611f328254611d29565b611f3d828285611e79565b600060209050601f831160018114611f705760008415611f5e578287015190505b611f688582611eea565b865550611fd0565b601f198416611f7e86611d5a565b60005b82811015611fa657848901518255600182019150602085019450602081019050611f81565b86831015611fc35784890151611fbf601f891682611ecc565b8355505b6001600288020188555050505b505050505050565b7f54686973206163636f756e7420686173206e6f206120436c69656e7420526f6c60008201527f6500000000000000000000000000000000000000000000000000000000000000602082015250565b6000612034602183611a0e565b915061203f82611fd8565b604082019050919050565b6000602082019050818103600083015261206381612027565b9050919050565b7f54686973206163636f756e7420686173206e6f2061204469737472696275746f60008201527f7220526f6c650000000000000000000000000000000000000000000000000000602082015250565b60006120c6602683611a0e565b91506120d18261206a565b604082019050919050565b600060208201905081810360008301526120f5816120b9565b9050919050565b7f54686973206164647265737320616c726561647920686173207468697320726f60008201527f6c65000000000000000000000000000000000000000000000000000000000000602082015250565b6000612158602283611a0e565b9150612163826120fc565b604082019050919050565b600060208201905081810360008301526121878161214b565b905091905056fea2646970667358221220b25c605fed6ed8d56bf602a0b0c40a471f3905e6d838c91da7a31adc4e0bccb464736f6c63430008110033",
  "immutableReferences": {},
  "source": "// SPDX-License-Identifier: MIT\r\npragma solidity ^0.8.0;\r\nimport './roles/Client.sol';\r\nimport './roles/Distributor.sol';\r\nimport './roles/Manufacturer.sol';\r\nimport './roles/Pharmacy.sol';\r\n\r\ncontract SupplyChain is Client,Distributor,Manufacturer,Pharmacy{\r\n    enum OrderStatus {Ordered ,Accepted , Declined, Completed}\r\n    enum Status {Created  , Ordered , Delivering , Delivered , Sold }\r\n    mapping(uint => Drug) public drugs; \r\n    uint public drugsNumber=0;   \r\n\r\n    mapping(uint => Order) public orders; \r\n    uint public orderNumber=0;   \r\n    struct Drug {\r\n        uint id ;\r\n        string name;\r\n        string description;\r\n        address manufacturer;\r\n        address ownerID;\r\n        int price;\r\n        Status Status;\r\n    }\r\n    struct Order{\r\n        uint id ;\r\n        uint drugIndex;\r\n        address pharmacy;\r\n        address distributor;\r\n        OrderStatus Status;\r\n    }\r\n    constructor(){\r\n\r\n        drugCreate(\"test\",\"test\",12);\r\n        \r\n        \r\n\r\n  }\r\n  function getDrugsNumber() public view returns (uint) {\r\n    return drugsNumber;\r\n}   \r\n    modifier orderCond(uint _index){\r\n        require(drugs[_index].manufacturer != msg.sender ,\"erroooooooooooor\");\r\n    _;\r\n    }\r\n    modifier DeliveringCond(uint _index){\r\n        require(orders[_index].Status == OrderStatus.Accepted);\r\n    _;\r\n    }\r\n    modifier AcceptCond(uint _Index){\r\n        require(orders[_Index].Status == OrderStatus.Ordered);\r\n        _;\r\n    }\r\n    modifier BuyCond(uint _Index){\r\n        require(orders[_Index].Status == OrderStatus.Completed);\r\n        require(drugs[orders[_Index].drugIndex].Status == Status.Delivered);\r\n        _;\r\n    }\r\n    modifier nameDrug(string memory _name1,string memory _description1){\r\n        require(bytes(_name1).length > 0, \"String must not be empty\");\r\n        require(bytes(_description1).length > 0, \"String must not be empty\");\r\n        _;\r\n    }\r\n    function drugCreate (string memory name1,string memory description1,int price) public onlyManufacturer nameDrug(name1,description1)  returns (Drug memory) {\r\n    Drug memory drug = Drug({\r\n        id : drugsNumber ,\r\n        name : name1,\r\n        description : description1,\r\n        manufacturer : msg.sender,\r\n        Status : Status.Created,\r\n        price : price ,\r\n        ownerID : msg.sender\r\n    });\r\n    drugs[drugsNumber]= drug;\r\n    drugsNumber++;\r\n    return drug;\r\n\r\n}\r\n//orderCond(index)\r\n    function orderDrug(uint index , address distributor ) public onlyPharmacie  returns(Order memory) {\r\n        Order memory order = Order({\r\n            id : orderNumber ,\r\n            drugIndex : index,\r\n            pharmacy : msg.sender,\r\n            distributor: distributor,\r\n            Status : OrderStatus.Ordered\r\n        });\r\n        orders[orderNumber]= order;\r\n        orderNumber++;\r\n        drugs[index].Status = Status.Ordered;\r\n        return order;\r\n    }\r\n    function priceChanger(uint index , int price) public onlyPharmacie {\r\n        drugs[index].price = price;\r\n    }\r\n    function AcceptOrder(uint orderIndex) public onlyManufacturer AcceptCond(orderIndex) {\r\n        orders[orderIndex].Status = OrderStatus.Accepted;\r\n    }\r\n    function DeclineOrder(uint orderIndex) public onlyManufacturer AcceptCond(orderIndex) {\r\n    orders[orderIndex].Status = OrderStatus.Declined;\r\n    }\r\n    function startDeliverdrug(uint orderIndex) public onlyDistributor DeliveringCond(orderIndex) {\r\n        uint index = orders[orderIndex].drugIndex;\r\n        drugs[index].Status = Status.Delivering;\r\n        drugs[index].ownerID = orders[orderIndex].distributor;\r\n\r\n    }\r\n    function endDelivering(uint orderIndex) public onlyDistributor {\r\n        uint index = orders[orderIndex].drugIndex;\r\n        orders[orderIndex].Status = OrderStatus.Completed;\r\n        drugs[index].Status = Status.Delivered;\r\n        drugs[index].ownerID = orders[orderIndex].pharmacy;\r\n    }\r\n    function buyDrug(uint index) public onlyClient {\r\n        drugs[index].Status = Status.Sold;\r\n        drugs[index].ownerID = msg.sender;\r\n    }\r\n    \r\n\r\n}",
  "sourcePath": "D:\\PCD\\supply\\SupplyChain\\contracts\\SupplyChain.sol",
  "compiler": {
    "name": "solc",
    "version": "0.8.17+commit.8df45f5f.Emscripten.clang"
  },
  "schemaVersion": "3.4.11",
  "updatedAt": "2023-02-18T22:47:48.457Z",
  "networkType": "ethereum",
  "devdoc": {
    "kind": "dev",
    "methods": {},
    "version": 1
  },
  "userdoc": {
    "kind": "user",
    "methods": {},
    "version": 1
  }
}