{
  "contractName": "SupplyChain",
  "abi": [
    {
      "inputs": [],
      "stateMutability": "nonpayable",
      "type": "constructor"
    },
    {
      "anonymous": false,
      "inputs": [
        {
          "indexed": true,
          "internalType": "uint256",
          "name": "id",
          "type": "uint256"
        },
        {
          "indexed": false,
          "internalType": "string",
          "name": "name",
          "type": "string"
        },
        {
          "indexed": false,
          "internalType": "string",
          "name": "description",
          "type": "string"
        },
        {
          "indexed": true,
          "internalType": "address",
          "name": "manufacturer",
          "type": "address"
        },
        {
          "indexed": false,
          "internalType": "int256",
          "name": "price",
          "type": "int256"
        }
      ],
      "name": "DrugAdded",
      "type": "event"
    },
    {
      "anonymous": false,
      "inputs": [
        {
          "indexed": false,
          "internalType": "uint256",
          "name": "id",
          "type": "uint256"
        },
        {
          "indexed": false,
          "internalType": "uint256",
          "name": "drugIndex",
          "type": "uint256"
        },
        {
          "indexed": false,
          "internalType": "address",
          "name": "pharmacy",
          "type": "address"
        },
        {
          "indexed": false,
          "internalType": "address",
          "name": "distributor",
          "type": "address"
        }
      ],
      "name": "OrderAdded",
      "type": "event"
    },
    {
      "inputs": [
        {
          "internalType": "address",
          "name": "account",
          "type": "address"
        }
      ],
      "name": "addClient",
      "outputs": [],
      "stateMutability": "nonpayable",
      "type": "function"
    },
    {
      "inputs": [
        {
          "internalType": "uint256",
          "name": "",
          "type": "uint256"
        }
      ],
      "name": "drugs",
      "outputs": [
        {
          "internalType": "uint256",
          "name": "id",
          "type": "uint256"
        },
        {
          "internalType": "string",
          "name": "name",
          "type": "string"
        },
        {
          "internalType": "string",
          "name": "description",
          "type": "string"
        },
        {
          "internalType": "address",
          "name": "manufacturer",
          "type": "address"
        },
        {
          "internalType": "address",
          "name": "ownerID",
          "type": "address"
        },
        {
          "internalType": "int256",
          "name": "price",
          "type": "int256"
        },
        {
          "internalType": "enum SupplyChain.Status",
          "name": "Status",
          "type": "uint8"
        }
      ],
      "stateMutability": "view",
      "type": "function",
      "constant": true
    },
    {
      "inputs": [],
      "name": "drugsNumber",
      "outputs": [
        {
          "internalType": "uint256",
          "name": "",
          "type": "uint256"
        }
      ],
      "stateMutability": "view",
      "type": "function",
      "constant": true
    },
    {
      "inputs": [
        {
          "internalType": "address",
          "name": "account",
          "type": "address"
        }
      ],
      "name": "isClient",
      "outputs": [
        {
          "internalType": "bool",
          "name": "",
          "type": "bool"
        }
      ],
      "stateMutability": "view",
      "type": "function",
      "constant": true
    },
    {
      "inputs": [
        {
          "internalType": "address",
          "name": "account",
          "type": "address"
        }
      ],
      "name": "isDistributor",
      "outputs": [
        {
          "internalType": "bool",
          "name": "",
          "type": "bool"
        }
      ],
      "stateMutability": "view",
      "type": "function",
      "constant": true
    },
    {
      "inputs": [
        {
          "internalType": "address",
          "name": "account",
          "type": "address"
        }
      ],
      "name": "isManufacturer",
      "outputs": [
        {
          "internalType": "bool",
          "name": "",
          "type": "bool"
        }
      ],
      "stateMutability": "view",
      "type": "function",
      "constant": true
    },
    {
      "inputs": [
        {
          "internalType": "address",
          "name": "account",
          "type": "address"
        }
      ],
      "name": "isPharmacie",
      "outputs": [
        {
          "internalType": "bool",
          "name": "",
          "type": "bool"
        }
      ],
      "stateMutability": "view",
      "type": "function",
      "constant": true
    },
    {
      "inputs": [],
      "name": "orderNumber",
      "outputs": [
        {
          "internalType": "uint256",
          "name": "",
          "type": "uint256"
        }
      ],
      "stateMutability": "view",
      "type": "function",
      "constant": true
    },
    {
      "inputs": [
        {
          "internalType": "uint256",
          "name": "",
          "type": "uint256"
        }
      ],
      "name": "orders",
      "outputs": [
        {
          "internalType": "uint256",
          "name": "id",
          "type": "uint256"
        },
        {
          "internalType": "uint256",
          "name": "drugIndex",
          "type": "uint256"
        },
        {
          "internalType": "address",
          "name": "pharmacy",
          "type": "address"
        },
        {
          "internalType": "address",
          "name": "distributor",
          "type": "address"
        },
        {
          "internalType": "enum SupplyChain.OrderStatus",
          "name": "Status",
          "type": "uint8"
        }
      ],
      "stateMutability": "view",
      "type": "function",
      "constant": true
    },
    {
      "inputs": [],
      "name": "getDrugsNumber",
      "outputs": [
        {
          "internalType": "uint256",
          "name": "",
          "type": "uint256"
        }
      ],
      "stateMutability": "view",
      "type": "function",
      "constant": true
    },
    {
      "inputs": [
        {
          "internalType": "uint256",
          "name": "id",
          "type": "uint256"
        }
      ],
      "name": "getDrug",
      "outputs": [
        {
          "components": [
            {
              "internalType": "uint256",
              "name": "id",
              "type": "uint256"
            },
            {
              "internalType": "string",
              "name": "name",
              "type": "string"
            },
            {
              "internalType": "string",
              "name": "description",
              "type": "string"
            },
            {
              "internalType": "address",
              "name": "manufacturer",
              "type": "address"
            },
            {
              "internalType": "address",
              "name": "ownerID",
              "type": "address"
            },
            {
              "internalType": "int256",
              "name": "price",
              "type": "int256"
            },
            {
              "internalType": "enum SupplyChain.Status",
              "name": "Status",
              "type": "uint8"
            }
          ],
          "internalType": "struct SupplyChain.Drug",
          "name": "",
          "type": "tuple"
        }
      ],
      "stateMutability": "view",
      "type": "function",
      "constant": true
    },
    {
      "inputs": [
        {
          "internalType": "uint256",
          "name": "id",
          "type": "uint256"
        }
      ],
      "name": "getOrder",
      "outputs": [
        {
          "components": [
            {
              "internalType": "uint256",
              "name": "id",
              "type": "uint256"
            },
            {
              "internalType": "uint256",
              "name": "drugIndex",
              "type": "uint256"
            },
            {
              "internalType": "address",
              "name": "pharmacy",
              "type": "address"
            },
            {
              "internalType": "address",
              "name": "distributor",
              "type": "address"
            },
            {
              "internalType": "enum SupplyChain.OrderStatus",
              "name": "Status",
              "type": "uint8"
            }
          ],
          "internalType": "struct SupplyChain.Order",
          "name": "",
          "type": "tuple"
        }
      ],
      "stateMutability": "view",
      "type": "function",
      "constant": true
    },
    {
      "inputs": [],
      "name": "getAllDrug",
      "outputs": [
        {
          "components": [
            {
              "internalType": "uint256",
              "name": "id",
              "type": "uint256"
            },
            {
              "internalType": "string",
              "name": "name",
              "type": "string"
            },
            {
              "internalType": "string",
              "name": "description",
              "type": "string"
            },
            {
              "internalType": "address",
              "name": "manufacturer",
              "type": "address"
            },
            {
              "internalType": "address",
              "name": "ownerID",
              "type": "address"
            },
            {
              "internalType": "int256",
              "name": "price",
              "type": "int256"
            },
            {
              "internalType": "enum SupplyChain.Status",
              "name": "Status",
              "type": "uint8"
            }
          ],
          "internalType": "struct SupplyChain.Drug[]",
          "name": "",
          "type": "tuple[]"
        }
      ],
      "stateMutability": "view",
      "type": "function",
      "constant": true
    },
    {
      "inputs": [],
      "name": "getAllOrders",
      "outputs": [
        {
          "components": [
            {
              "internalType": "uint256",
              "name": "id",
              "type": "uint256"
            },
            {
              "internalType": "uint256",
              "name": "drugIndex",
              "type": "uint256"
            },
            {
              "internalType": "address",
              "name": "pharmacy",
              "type": "address"
            },
            {
              "internalType": "address",
              "name": "distributor",
              "type": "address"
            },
            {
              "internalType": "enum SupplyChain.OrderStatus",
              "name": "Status",
              "type": "uint8"
            }
          ],
          "internalType": "struct SupplyChain.Order[]",
          "name": "",
          "type": "tuple[]"
        }
      ],
      "stateMutability": "view",
      "type": "function",
      "constant": true
    },
    {
      "inputs": [
        {
          "internalType": "string",
          "name": "name1",
          "type": "string"
        },
        {
          "internalType": "string",
          "name": "description1",
          "type": "string"
        },
        {
          "internalType": "int256",
          "name": "price",
          "type": "int256"
        }
      ],
      "name": "drugCreate",
      "outputs": [
        {
          "components": [
            {
              "internalType": "uint256",
              "name": "id",
              "type": "uint256"
            },
            {
              "internalType": "string",
              "name": "name",
              "type": "string"
            },
            {
              "internalType": "string",
              "name": "description",
              "type": "string"
            },
            {
              "internalType": "address",
              "name": "manufacturer",
              "type": "address"
            },
            {
              "internalType": "address",
              "name": "ownerID",
              "type": "address"
            },
            {
              "internalType": "int256",
              "name": "price",
              "type": "int256"
            },
            {
              "internalType": "enum SupplyChain.Status",
              "name": "Status",
              "type": "uint8"
            }
          ],
          "internalType": "struct SupplyChain.Drug",
          "name": "",
          "type": "tuple"
        }
      ],
      "stateMutability": "payable",
      "type": "function",
      "payable": true
    },
    {
      "inputs": [
        {
          "internalType": "uint256",
          "name": "index",
          "type": "uint256"
        },
        {
          "internalType": "address",
          "name": "distributor",
          "type": "address"
        }
      ],
      "name": "orderDrug",
      "outputs": [
        {
          "components": [
            {
              "internalType": "uint256",
              "name": "id",
              "type": "uint256"
            },
            {
              "internalType": "uint256",
              "name": "drugIndex",
              "type": "uint256"
            },
            {
              "internalType": "address",
              "name": "pharmacy",
              "type": "address"
            },
            {
              "internalType": "address",
              "name": "distributor",
              "type": "address"
            },
            {
              "internalType": "enum SupplyChain.OrderStatus",
              "name": "Status",
              "type": "uint8"
            }
          ],
          "internalType": "struct SupplyChain.Order",
          "name": "",
          "type": "tuple"
        }
      ],
      "stateMutability": "nonpayable",
      "type": "function"
    },
    {
      "inputs": [
        {
          "internalType": "uint256",
          "name": "index",
          "type": "uint256"
        },
        {
          "internalType": "int256",
          "name": "price",
          "type": "int256"
        }
      ],
      "name": "priceChanger",
      "outputs": [],
      "stateMutability": "nonpayable",
      "type": "function"
    },
    {
      "inputs": [
        {
          "internalType": "uint256",
          "name": "orderIndex",
          "type": "uint256"
        }
      ],
      "name": "AcceptOrder",
      "outputs": [],
      "stateMutability": "nonpayable",
      "type": "function"
    },
    {
      "inputs": [
        {
          "internalType": "uint256",
          "name": "orderIndex",
          "type": "uint256"
        }
      ],
      "name": "DeclineOrder",
      "outputs": [],
      "stateMutability": "nonpayable",
      "type": "function"
    },
    {
      "inputs": [
        {
          "internalType": "uint256",
          "name": "orderIndex",
          "type": "uint256"
        }
      ],
      "name": "startDeliverdrug",
      "outputs": [],
      "stateMutability": "nonpayable",
      "type": "function"
    },
    {
      "inputs": [
        {
          "internalType": "uint256",
          "name": "orderIndex",
          "type": "uint256"
        }
      ],
      "name": "endDelivering",
      "outputs": [],
      "stateMutability": "nonpayable",
      "type": "function"
    },
    {
      "inputs": [
        {
          "internalType": "uint256",
          "name": "index",
          "type": "uint256"
        }
      ],
      "name": "buyDrug",
      "outputs": [],
      "stateMutability": "nonpayable",
      "type": "function"
    }
  ],
  "bytecode": "0x6080604052600060055560006007553480156200001b57600080fd5b506200002d336200006660201b60201c565b6200003e336200008460201b60201c565b6200004f33620000a260201b60201c565b6200006033620000c060201b60201c565b62000293565b62000081816000620000de60201b62001cb41790919060201c565b50565b6200009f816001620000de60201b62001cb41790919060201c565b50565b620000bd816002620000de60201b62001cb41790919060201c565b50565b620000db816003620000de60201b62001cb41790919060201c565b50565b620000f082826200019160201b60201c565b1562000133576040517f08c379a00000000000000000000000000000000000000000000000000000000081526004016200012a9062000271565b60405180910390fd5b60018260000160008373ffffffffffffffffffffffffffffffffffffffff1673ffffffffffffffffffffffffffffffffffffffff16815260200190815260200160002060006101000a81548160ff0219169083151502179055505050565b60008260000160008373ffffffffffffffffffffffffffffffffffffffff1673ffffffffffffffffffffffffffffffffffffffff16815260200190815260200160002060009054906101000a900460ff16905092915050565b600082825260208201905092915050565b7f54686973206164647265737320616c726561647920686173207468697320726f60008201527f6c65000000000000000000000000000000000000000000000000000000000000602082015250565b600062000259602283620001ea565b91506200026682620001fb565b604082019050919050565b600060208201905081810360008301526200028c816200024a565b9050919050565b61314580620002a36000396000f3fe6080604052600436106101355760003560e01c8063a85c38ef116100ab578063d09ef2411161006f578063d09ef24114610469578063d11daa6a146104a6578063dc6a7c50146104cf578063f0071512146104f8578063f8f73a3e14610523578063fca5e61e1461054c57610135565b8063a85c38ef14610365578063b04dd81b146103a6578063b230133c146103d1578063b8840d3d14610401578063c2ec7e0b1461043e57610135565b806368f46b15116100fd57806368f46b151461022f57806376f69274146102585780637bea0d1c1461028357806384b7964f146102ae5780638f0c86fa146102eb578063a3a6fc441461032857610135565b806317d4a4911461013a5780633e25794c146101775780633ee2abe2146101a057806343928cfd146101dd57806359c4db8814610206575b600080fd5b34801561014657600080fd5b50610161600480360381019061015c9190611f0f565b61058f565b60405161016e9190611f57565b60405180910390f35b34801561018357600080fd5b5061019e60048036038101906101999190611fde565b6105ac565b005b3480156101ac57600080fd5b506101c760048036038101906101c29190611f0f565b610613565b6040516101d49190611f57565b60405180910390f35b3480156101e957600080fd5b5061020460048036038101906101ff9190611f0f565b610630565b005b34801561021257600080fd5b5061022d6004803603810190610228919061201e565b610647565b005b34801561023b57600080fd5b506102566004803603810190610251919061201e565b610727565b005b34801561026457600080fd5b5061026d610807565b60405161027a919061205a565b60405180910390f35b34801561028f57600080fd5b50610298610811565b6040516102a59190612221565b60405180910390f35b3480156102ba57600080fd5b506102d560048036038101906102d09190611f0f565b610a1c565b6040516102e29190611f57565b60405180910390f35b3480156102f757600080fd5b50610312600480360381019061030d9190611f0f565b610a39565b60405161031f9190611f57565b60405180910390f35b34801561033457600080fd5b5061034f600480360381019061034a9190612243565b610a56565b60405161035c91906122eb565b60405180910390f35b34801561037157600080fd5b5061038c6004803603810190610387919061201e565b610cab565b60405161039d959493929190612324565b60405180910390f35b3480156103b257600080fd5b506103bb610d2e565b6040516103c8919061205a565b60405180910390f35b6103eb60048036038101906103e691906124bd565b610d34565b6040516103f891906126c1565b60405180910390f35b34801561040d57600080fd5b506104286004803603810190610423919061201e565b611073565b60405161043591906126c1565b60405180910390f35b34801561044a57600080fd5b506104536112bf565b6040516104609190612848565b60405180910390f35b34801561047557600080fd5b50610490600480360381019061048b919061201e565b611612565b60405161049d91906122eb565b60405180910390f35b3480156104b257600080fd5b506104cd60048036038101906104c8919061201e565b61173a565b005b3480156104db57600080fd5b506104f660048036038101906104f1919061201e565b611818565b005b34801561050457600080fd5b5061050d61199f565b60405161051a919061205a565b60405180910390f35b34801561052f57600080fd5b5061054a6004803603810190610545919061201e565b6119a5565b005b34801561055857600080fd5b50610573600480360381019061056e919061201e565b611b15565b60405161058697969594939291906128d2565b60405180910390f35b60006105a5826002611d5c90919063ffffffff16565b9050919050565b6105b533610613565b6105f4576040517f08c379a00000000000000000000000000000000000000000000000000000000081526004016105eb906129c1565b60405180910390fd5b8060046000848152602001908152602001600020600501819055505050565b6000610629826003611d5c90919063ffffffff16565b9050919050565b610644816000611cb490919063ffffffff16565b50565b6106503361058f565b61068f576040517f08c379a000000000000000000000000000000000000000000000000000000000815260040161068690612a53565b60405180910390fd5b80600060038111156106a4576106a36120bf565b5b6006600083815260200190815260200160002060030160149054906101000a900460ff1660038111156106da576106d96120bf565b5b146106e457600080fd5b60016006600084815260200190815260200160002060030160146101000a81548160ff0219169083600381111561071e5761071d6120bf565b5b02179055505050565b6107303361058f565b61076f576040517f08c379a000000000000000000000000000000000000000000000000000000000815260040161076690612a53565b60405180910390fd5b8060006003811115610784576107836120bf565b5b6006600083815260200190815260200160002060030160149054906101000a900460ff1660038111156107ba576107b96120bf565b5b146107c457600080fd5b60026006600084815260200190815260200160002060030160146101000a81548160ff021916908360038111156107fe576107fd6120bf565b5b02179055505050565b6000600554905090565b6060600060075467ffffffffffffffff81111561083157610830612392565b5b60405190808252806020026020018201604052801561086a57816020015b610857611db5565b81526020019060019003908161084f5790505b50905060005b600754811015610a14576001600481111561088e5761088d6120bf565b5b6004600083815260200190815260200160002060060160009054906101000a900460ff1660048111156108c4576108c36120bf565b5b03610a0157600660008281526020019081526020016000206040518060a001604052908160008201548152602001600182015481526020016002820160009054906101000a900473ffffffffffffffffffffffffffffffffffffffff1673ffffffffffffffffffffffffffffffffffffffff1673ffffffffffffffffffffffffffffffffffffffff1681526020016003820160009054906101000a900473ffffffffffffffffffffffffffffffffffffffff1673ffffffffffffffffffffffffffffffffffffffff1673ffffffffffffffffffffffffffffffffffffffff1681526020016003820160149054906101000a900460ff1660038111156109cc576109cb6120bf565b5b60038111156109de576109dd6120bf565b5b815250508282815181106109f5576109f4612a73565b5b60200260200101819052505b8080610a0c90612ad1565b915050610870565b508091505090565b6000610a32826000611d5c90919063ffffffff16565b9050919050565b6000610a4f826001611d5c90919063ffffffff16565b9050919050565b610a5e611db5565b610a6733610613565b610aa6576040517f08c379a0000000000000000000000000000000000000000000000000000000008152600401610a9d906129c1565b60405180910390fd5b60006040518060a0016040528060075481526020018581526020013373ffffffffffffffffffffffffffffffffffffffff1681526020018473ffffffffffffffffffffffffffffffffffffffff16815260200160006003811115610b0d57610b0c6120bf565b5b815250905080600660006007548152602001908152602001600020600082015181600001556020820151816001015560408201518160020160006101000a81548173ffffffffffffffffffffffffffffffffffffffff021916908373ffffffffffffffffffffffffffffffffffffffff16021790555060608201518160030160006101000a81548173ffffffffffffffffffffffffffffffffffffffff021916908373ffffffffffffffffffffffffffffffffffffffff16021790555060808201518160030160146101000a81548160ff02191690836003811115610bf557610bf46120bf565b5b021790555090505060076000815480929190610c1090612ad1565b919050555060016004600086815260200190815260200160002060060160006101000a81548160ff02191690836004811115610c4f57610c4e6120bf565b5b02179055507f807965694c0cbcf5c62c7e6f6d4dc484ec446ea685fdacbe3bbc22847a7e18148160000151826020015183604001518460600151604051610c999493929190612b19565b60405180910390a18091505092915050565b60066020528060005260406000206000915090508060000154908060010154908060020160009054906101000a900473ffffffffffffffffffffffffffffffffffffffff16908060030160009054906101000a900473ffffffffffffffffffffffffffffffffffffffff16908060030160149054906101000a900460ff16905085565b60075481565b610d3c611e22565b610d453361058f565b610d84576040517f08c379a0000000000000000000000000000000000000000000000000000000008152600401610d7b90612a53565b60405180910390fd5b83836000825111610dca576040517f08c379a0000000000000000000000000000000000000000000000000000000008152600401610dc190612baa565b60405180910390fd5b6000815111610e0e576040517f08c379a0000000000000000000000000000000000000000000000000000000008152600401610e0590612baa565b60405180910390fd5b662386f26fc10000341115610e58576040517f08c379a0000000000000000000000000000000000000000000000000000000008152600401610e4f90612c16565b60405180910390fd5b60006040518060e0016040528060055481526020018881526020018781526020013373ffffffffffffffffffffffffffffffffffffffff1681526020013373ffffffffffffffffffffffffffffffffffffffff16815260200186815260200160006004811115610ecb57610eca6120bf565b5b815250905080600460006005548152602001908152602001600020600082015181600001556020820151816001019081610f059190612e42565b506040820151816002019081610f1b9190612e42565b5060608201518160030160006101000a81548173ffffffffffffffffffffffffffffffffffffffff021916908373ffffffffffffffffffffffffffffffffffffffff16021790555060808201518160040160006101000a81548173ffffffffffffffffffffffffffffffffffffffff021916908373ffffffffffffffffffffffffffffffffffffffff16021790555060a0820151816005015560c08201518160060160006101000a81548160ff02191690836004811115610fdf57610fde6120bf565b5b021790555090505060056000815480929190610ffa90612ad1565b9190505550806060015173ffffffffffffffffffffffffffffffffffffffff1681600001517f140fc2234ca34fe5ccda9ab4c26954ff383d4037ff8a489f1582531f12a5105f836020015184604001518560a0015160405161105e93929190612f14565b60405180910390a38093505050509392505050565b61107b611e22565b600460008381526020019081526020016000206040518060e0016040529081600082015481526020016001820180546110b390612c65565b80601f01602080910402602001604051908101604052809291908181526020018280546110df90612c65565b801561112c5780601f106111015761010080835404028352916020019161112c565b820191906000526020600020905b81548152906001019060200180831161110f57829003601f168201915b5050505050815260200160028201805461114590612c65565b80601f016020809104026020016040519081016040528092919081815260200182805461117190612c65565b80156111be5780601f10611193576101008083540402835291602001916111be565b820191906000526020600020905b8154815290600101906020018083116111a157829003601f168201915b505050505081526020016003820160009054906101000a900473ffffffffffffffffffffffffffffffffffffffff1673ffffffffffffffffffffffffffffffffffffffff1673ffffffffffffffffffffffffffffffffffffffff1681526020016004820160009054906101000a900473ffffffffffffffffffffffffffffffffffffffff1673ffffffffffffffffffffffffffffffffffffffff1673ffffffffffffffffffffffffffffffffffffffff168152602001600582015481526020016006820160009054906101000a900460ff1660048111156112a2576112a16120bf565b5b60048111156112b4576112b36120bf565b5b815250509050919050565b6060600060055467ffffffffffffffff8111156112df576112de612392565b5b60405190808252806020026020018201604052801561131857816020015b611305611e22565b8152602001906001900390816112fd5790505b50905060005b60055481101561160a576000600481111561133c5761133b6120bf565b5b6004600083815260200190815260200160002060060160009054906101000a900460ff166004811115611372576113716120bf565b5b14801561139657506000600460008381526020019081526020016000206005015414155b156115f757600460008281526020019081526020016000206040518060e0016040529081600082015481526020016001820180546113d390612c65565b80601f01602080910402602001604051908101604052809291908181526020018280546113ff90612c65565b801561144c5780601f106114215761010080835404028352916020019161144c565b820191906000526020600020905b81548152906001019060200180831161142f57829003601f168201915b5050505050815260200160028201805461146590612c65565b80601f016020809104026020016040519081016040528092919081815260200182805461149190612c65565b80156114de5780601f106114b3576101008083540402835291602001916114de565b820191906000526020600020905b8154815290600101906020018083116114c157829003601f168201915b505050505081526020016003820160009054906101000a900473ffffffffffffffffffffffffffffffffffffffff1673ffffffffffffffffffffffffffffffffffffffff1673ffffffffffffffffffffffffffffffffffffffff1681526020016004820160009054906101000a900473ffffffffffffffffffffffffffffffffffffffff1673ffffffffffffffffffffffffffffffffffffffff1673ffffffffffffffffffffffffffffffffffffffff168152602001600582015481526020016006820160009054906101000a900460ff1660048111156115c2576115c16120bf565b5b60048111156115d4576115d36120bf565b5b815250508282815181106115eb576115ea612a73565b5b60200260200101819052505b808061160290612ad1565b91505061131e565b508091505090565b61161a611db5565b600660008381526020019081526020016000206040518060a001604052908160008201548152602001600182015481526020016002820160009054906101000a900473ffffffffffffffffffffffffffffffffffffffff1673ffffffffffffffffffffffffffffffffffffffff1673ffffffffffffffffffffffffffffffffffffffff1681526020016003820160009054906101000a900473ffffffffffffffffffffffffffffffffffffffff1673ffffffffffffffffffffffffffffffffffffffff1673ffffffffffffffffffffffffffffffffffffffff1681526020016003820160149054906101000a900460ff16600381111561171d5761171c6120bf565b5b600381111561172f5761172e6120bf565b5b815250509050919050565b61174333610a1c565b611782576040517f08c379a000000000000000000000000000000000000000000000000000000000815260040161177990612fcb565b60405180910390fd5b600480600083815260200190815260200160002060060160006101000a81548160ff021916908360048111156117bb576117ba6120bf565b5b0217905550336004600083815260200190815260200160002060040160006101000a81548173ffffffffffffffffffffffffffffffffffffffff021916908373ffffffffffffffffffffffffffffffffffffffff16021790555050565b61182133610a39565b611860576040517f08c379a00000000000000000000000000000000000000000000000000000000081526004016118579061305d565b60405180910390fd5b8060016003811115611875576118746120bf565b5b6006600083815260200190815260200160002060030160149054906101000a900460ff1660038111156118ab576118aa6120bf565b5b146118b557600080fd5b60006006600084815260200190815260200160002060010154905060026004600083815260200190815260200160002060060160006101000a81548160ff0219169083600481111561190a576119096120bf565b5b02179055506006600084815260200190815260200160002060030160009054906101000a900473ffffffffffffffffffffffffffffffffffffffff166004600083815260200190815260200160002060040160006101000a81548173ffffffffffffffffffffffffffffffffffffffff021916908373ffffffffffffffffffffffffffffffffffffffff160217905550505050565b60055481565b6119ae33610a39565b6119ed576040517f08c379a00000000000000000000000000000000000000000000000000000000081526004016119e49061305d565b60405180910390fd5b60006006600083815260200190815260200160002060010154905060036006600084815260200190815260200160002060030160146101000a81548160ff02191690836003811115611a4257611a416120bf565b5b021790555060036004600083815260200190815260200160002060060160006101000a81548160ff02191690836004811115611a8157611a806120bf565b5b02179055506006600083815260200190815260200160002060020160009054906101000a900473ffffffffffffffffffffffffffffffffffffffff166004600083815260200190815260200160002060040160006101000a81548173ffffffffffffffffffffffffffffffffffffffff021916908373ffffffffffffffffffffffffffffffffffffffff1602179055505050565b6004602052806000526040600020600091509050806000015490806001018054611b3e90612c65565b80601f0160208091040260200160405190810160405280929190818152602001828054611b6a90612c65565b8015611bb75780601f10611b8c57610100808354040283529160200191611bb7565b820191906000526020600020905b815481529060010190602001808311611b9a57829003601f168201915b505050505090806002018054611bcc90612c65565b80601f0160208091040260200160405190810160405280929190818152602001828054611bf890612c65565b8015611c455780601f10611c1a57610100808354040283529160200191611c45565b820191906000526020600020905b815481529060010190602001808311611c2857829003601f168201915b5050505050908060030160009054906101000a900473ffffffffffffffffffffffffffffffffffffffff16908060040160009054906101000a900473ffffffffffffffffffffffffffffffffffffffff16908060050154908060060160009054906101000a900460ff16905087565b611cbe8282611d5c565b15611cfe576040517f08c379a0000000000000000000000000000000000000000000000000000000008152600401611cf5906130ef565b60405180910390fd5b60018260000160008373ffffffffffffffffffffffffffffffffffffffff1673ffffffffffffffffffffffffffffffffffffffff16815260200190815260200160002060006101000a81548160ff0219169083151502179055505050565b60008260000160008373ffffffffffffffffffffffffffffffffffffffff1673ffffffffffffffffffffffffffffffffffffffff16815260200190815260200160002060009054906101000a900460ff16905092915050565b6040518060a001604052806000815260200160008152602001600073ffffffffffffffffffffffffffffffffffffffff168152602001600073ffffffffffffffffffffffffffffffffffffffff16815260200160006003811115611e1c57611e1b6120bf565b5b81525090565b6040518060e00160405280600081526020016060815260200160608152602001600073ffffffffffffffffffffffffffffffffffffffff168152602001600073ffffffffffffffffffffffffffffffffffffffff1681526020016000815260200160006004811115611e9757611e966120bf565b5b81525090565b6000604051905090565b600080fd5b600080fd5b600073ffffffffffffffffffffffffffffffffffffffff82169050919050565b6000611edc82611eb1565b9050919050565b611eec81611ed1565b8114611ef757600080fd5b50565b600081359050611f0981611ee3565b92915050565b600060208284031215611f2557611f24611ea7565b5b6000611f3384828501611efa565b91505092915050565b60008115159050919050565b611f5181611f3c565b82525050565b6000602082019050611f6c6000830184611f48565b92915050565b6000819050919050565b611f8581611f72565b8114611f9057600080fd5b50565b600081359050611fa281611f7c565b92915050565b6000819050919050565b611fbb81611fa8565b8114611fc657600080fd5b50565b600081359050611fd881611fb2565b92915050565b60008060408385031215611ff557611ff4611ea7565b5b600061200385828601611f93565b925050602061201485828601611fc9565b9150509250929050565b60006020828403121561203457612033611ea7565b5b600061204284828501611f93565b91505092915050565b61205481611f72565b82525050565b600060208201905061206f600083018461204b565b92915050565b600081519050919050565b600082825260208201905092915050565b6000819050602082019050919050565b6120aa81611f72565b82525050565b6120b981611ed1565b82525050565b7f4e487b7100000000000000000000000000000000000000000000000000000000600052602160045260246000fd5b600481106120ff576120fe6120bf565b5b50565b6000819050612110826120ee565b919050565b600061212082612102565b9050919050565b61213081612115565b82525050565b60a08201600082015161214c60008501826120a1565b50602082015161215f60208501826120a1565b50604082015161217260408501826120b0565b50606082015161218560608501826120b0565b5060808201516121986080850182612127565b50505050565b60006121aa8383612136565b60a08301905092915050565b6000602082019050919050565b60006121ce82612075565b6121d88185612080565b93506121e383612091565b8060005b838110156122145781516121fb888261219e565b9750612206836121b6565b9250506001810190506121e7565b5085935050505092915050565b6000602082019050818103600083015261223b81846121c3565b905092915050565b6000806040838503121561225a57612259611ea7565b5b600061226885828601611f93565b925050602061227985828601611efa565b9150509250929050565b60a08201600082015161229960008501826120a1565b5060208201516122ac60208501826120a1565b5060408201516122bf60408501826120b0565b5060608201516122d260608501826120b0565b5060808201516122e56080850182612127565b50505050565b600060a0820190506123006000830184612283565b92915050565b61230f81611ed1565b82525050565b61231e81612115565b82525050565b600060a082019050612339600083018861204b565b612346602083018761204b565b6123536040830186612306565b6123606060830185612306565b61236d6080830184612315565b9695505050505050565b600080fd5b600080fd5b6000601f19601f8301169050919050565b7f4e487b7100000000000000000000000000000000000000000000000000000000600052604160045260246000fd5b6123ca82612381565b810181811067ffffffffffffffff821117156123e9576123e8612392565b5b80604052505050565b60006123fc611e9d565b905061240882826123c1565b919050565b600067ffffffffffffffff82111561242857612427612392565b5b61243182612381565b9050602081019050919050565b82818337600083830152505050565b600061246061245b8461240d565b6123f2565b90508281526020810184848401111561247c5761247b61237c565b5b61248784828561243e565b509392505050565b600082601f8301126124a4576124a3612377565b5b81356124b484826020860161244d565b91505092915050565b6000806000606084860312156124d6576124d5611ea7565b5b600084013567ffffffffffffffff8111156124f4576124f3611eac565b5b6125008682870161248f565b935050602084013567ffffffffffffffff81111561252157612520611eac565b5b61252d8682870161248f565b925050604061253e86828701611fc9565b9150509250925092565b600081519050919050565b600082825260208201905092915050565b60005b83811015612582578082015181840152602081019050612567565b60008484015250505050565b600061259982612548565b6125a38185612553565b93506125b3818560208601612564565b6125bc81612381565b840191505092915050565b6125d081611fa8565b82525050565b600581106125e7576125e66120bf565b5b50565b60008190506125f8826125d6565b919050565b6000612608826125ea565b9050919050565b612618816125fd565b82525050565b600060e08301600083015161263660008601826120a1565b506020830151848203602086015261264e828261258e565b91505060408301518482036040860152612668828261258e565b915050606083015161267d60608601826120b0565b50608083015161269060808601826120b0565b5060a08301516126a360a08601826125c7565b5060c08301516126b660c086018261260f565b508091505092915050565b600060208201905081810360008301526126db818461261e565b905092915050565b600081519050919050565b600082825260208201905092915050565b6000819050602082019050919050565b600060e08301600083015161272760008601826120a1565b506020830151848203602086015261273f828261258e565b91505060408301518482036040860152612759828261258e565b915050606083015161276e60608601826120b0565b50608083015161278160808601826120b0565b5060a083015161279460a08601826125c7565b5060c08301516127a760c086018261260f565b508091505092915050565b60006127be838361270f565b905092915050565b6000602082019050919050565b60006127de826126e3565b6127e881856126ee565b9350836020820285016127fa856126ff565b8060005b85811015612836578484038952815161281785826127b2565b9450612822836127c6565b925060208a019950506001810190506127fe565b50829750879550505050505092915050565b6000602082019050818103600083015261286281846127d3565b905092915050565b600082825260208201905092915050565b600061288682612548565b612890818561286a565b93506128a0818560208601612564565b6128a981612381565b840191505092915050565b6128bd81611fa8565b82525050565b6128cc816125fd565b82525050565b600060e0820190506128e7600083018a61204b565b81810360208301526128f9818961287b565b9050818103604083015261290d818861287b565b905061291c6060830187612306565b6129296080830186612306565b61293660a08301856128b4565b61294360c08301846128c3565b98975050505050505050565b7f54686973206163636f756e7420686173206e6f206120506861726d616369652060008201527f526f6c6500000000000000000000000000000000000000000000000000000000602082015250565b60006129ab60248361286a565b91506129b68261294f565b604082019050919050565b600060208201905081810360008301526129da8161299e565b9050919050565b7f54686973206163636f756e7420686173206e6f2061204d616e7566616374757260008201527f657220526f6c6500000000000000000000000000000000000000000000000000602082015250565b6000612a3d60278361286a565b9150612a48826129e1565b604082019050919050565b60006020820190508181036000830152612a6c81612a30565b9050919050565b7f4e487b7100000000000000000000000000000000000000000000000000000000600052603260045260246000fd5b7f4e487b7100000000000000000000000000000000000000000000000000000000600052601160045260246000fd5b6000612adc82611f72565b91507fffffffffffffffffffffffffffffffffffffffffffffffffffffffffffffffff8203612b0e57612b0d612aa2565b5b600182019050919050565b6000608082019050612b2e600083018761204b565b612b3b602083018661204b565b612b486040830185612306565b612b556060830184612306565b95945050505050565b7f537472696e67206d757374206e6f7420626520656d7074790000000000000000600082015250565b6000612b9460188361286a565b9150612b9f82612b5e565b602082019050919050565b60006020820190508181036000830152612bc381612b87565b9050919050565b7f5061796d656e7420616d6f756e7420697320696e73756666696369656e742e00600082015250565b6000612c00601f8361286a565b9150612c0b82612bca565b602082019050919050565b60006020820190508181036000830152612c2f81612bf3565b9050919050565b7f4e487b7100000000000000000000000000000000000000000000000000000000600052602260045260246000fd5b60006002820490506001821680612c7d57607f821691505b602082108103612c9057612c8f612c36565b5b50919050565b60008190508160005260206000209050919050565b60006020601f8301049050919050565b600082821b905092915050565b600060088302612cf87fffffffffffffffffffffffffffffffffffffffffffffffffffffffffffffffff82612cbb565b612d028683612cbb565b95508019841693508086168417925050509392505050565b6000819050919050565b6000612d3f612d3a612d3584611f72565b612d1a565b611f72565b9050919050565b6000819050919050565b612d5983612d24565b612d6d612d6582612d46565b848454612cc8565b825550505050565b600090565b612d82612d75565b612d8d818484612d50565b505050565b5b81811015612db157612da6600082612d7a565b600181019050612d93565b5050565b601f821115612df657612dc781612c96565b612dd084612cab565b81016020851015612ddf578190505b612df3612deb85612cab565b830182612d92565b50505b505050565b600082821c905092915050565b6000612e1960001984600802612dfb565b1980831691505092915050565b6000612e328383612e08565b9150826002028217905092915050565b612e4b82612548565b67ffffffffffffffff811115612e6457612e63612392565b5b612e6e8254612c65565b612e79828285612db5565b600060209050601f831160018114612eac5760008415612e9a578287015190505b612ea48582612e26565b865550612f0c565b601f198416612eba86612c96565b60005b82811015612ee257848901518255600182019150602085019450602081019050612ebd565b86831015612eff5784890151612efb601f891682612e08565b8355505b6001600288020188555050505b505050505050565b60006060820190508181036000830152612f2e818661287b565b90508181036020830152612f42818561287b565b9050612f5160408301846128b4565b949350505050565b7f54686973206163636f756e7420686173206e6f206120436c69656e7420526f6c60008201527f6500000000000000000000000000000000000000000000000000000000000000602082015250565b6000612fb560218361286a565b9150612fc082612f59565b604082019050919050565b60006020820190508181036000830152612fe481612fa8565b9050919050565b7f54686973206163636f756e7420686173206e6f2061204469737472696275746f60008201527f7220526f6c650000000000000000000000000000000000000000000000000000602082015250565b600061304760268361286a565b915061305282612feb565b604082019050919050565b600060208201905081810360008301526130768161303a565b9050919050565b7f54686973206164647265737320616c726561647920686173207468697320726f60008201527f6c65000000000000000000000000000000000000000000000000000000000000602082015250565b60006130d960228361286a565b91506130e48261307d565b604082019050919050565b60006020820190508181036000830152613108816130cc565b905091905056fea2646970667358221220381e196566a8e1a4d1f47bcf2bfee023e6dd88adb8989e67ffc649f6c490cc8d64736f6c63430008110033",
  "immutableReferences": {},
  "source": "// SPDX-License-Identifier: MIT\r\npragma solidity ^0.8.0;\r\nimport './roles/Client.sol';\r\nimport './roles/Distributor.sol';\r\nimport './roles/Manufacturer.sol';\r\nimport './roles/Pharmacy.sol';\r\n\r\ncontract SupplyChain is Client,Distributor,Manufacturer,Pharmacy{\r\n    enum OrderStatus {Ordered ,Accepted , Declined, Completed}\r\n    enum Status {Created  , Ordered , Delivering , Delivered , Sold }\r\n    mapping(uint => Drug) public drugs; \r\n    uint public drugsNumber=0;   \r\n\r\n    mapping(uint => Order) public orders; \r\n    uint public orderNumber=0;   \r\n    struct Drug {\r\n        uint id ;\r\n        string name;\r\n        string description;\r\n        address manufacturer;\r\n        address ownerID;\r\n        int price;\r\n        Status Status;\r\n    }\r\n    struct Order{\r\n        uint id ;\r\n        uint drugIndex;\r\n        address pharmacy;\r\n        address distributor;\r\n        OrderStatus Status;\r\n    }\r\n    constructor(){       \r\n\r\n    }\r\n    function getDrugsNumber() public view returns (uint) {\r\n    return drugsNumber;\r\n}   \r\nfunction getDrug (uint id)public view returns(Drug memory){\r\n    return drugs[id];\r\n}\r\nfunction getOrder (uint id)public view returns(Order memory){\r\n    return orders[id];\r\n}\r\nfunction getAllDrug() public view returns (Drug[] memory) {\r\n    Drug[] memory drugsAvailable = new Drug[](drugsNumber);\r\n    for (uint i = 0; i < drugsNumber; i++) {    \r\n        if ((drugs[i].Status == Status.Created)&&(drugs[i].price != 0)){\r\n        drugsAvailable[i] = drugs[i];}\r\n    }\r\n    return drugsAvailable;\r\n}\r\nfunction getAllOrders() public view returns (Order[] memory) {\r\n    Order[] memory OrdersAvailable = new Order[](orderNumber);\r\n    for (uint i = 0; i < orderNumber; i++) {    \r\n        if ((drugs[i].Status == Status.Ordered)){\r\n        OrdersAvailable[i] = orders[i];}\r\n    }\r\n    return OrdersAvailable;\r\n}\r\n    modifier orderCond(uint _index){\r\n        require(drugs[_index].manufacturer != msg.sender ,\"erroooooooooooor\");\r\n    _;\r\n    }\r\n    modifier DeliveringCond(uint _index){\r\n        require(orders[_index].Status == OrderStatus.Accepted);\r\n    _;\r\n    }\r\n    modifier AcceptCond(uint _Index){\r\n        require(orders[_Index].Status == OrderStatus.Ordered);\r\n        _;\r\n    }\r\n    modifier BuyCond(uint _Index){\r\n        require(orders[_Index].Status == OrderStatus.Completed);\r\n        require(drugs[orders[_Index].drugIndex].Status == Status.Delivered);\r\n        _;\r\n    }\r\n    modifier nameDrug(string memory _name1,string memory _description1){\r\n        require(bytes(_name1).length > 0, \"String must not be empty\");\r\n        require(bytes(_description1).length > 0, \"String must not be empty\");\r\n        _;\r\n    }\r\nevent DrugAdded(uint indexed id, string name, string description, address indexed manufacturer, int price);\r\n\r\nfunction drugCreate(string memory name1, string memory description1, int price) public payable onlyManufacturer nameDrug(name1, description1) returns (Drug memory) {\r\n    require(msg.value <= 0.01 ether, \"Payment amount is insufficient.\");\r\n    Drug memory drug = Drug({\r\n        id : drugsNumber ,\r\n        name : name1,\r\n        description : description1,\r\n        manufacturer : msg.sender,\r\n        Status : Status.Created,\r\n        price : price ,\r\n        ownerID : msg.sender\r\n    });\r\n\r\n    drugs[drugsNumber]= drug;\r\n    drugsNumber++;\r\n    emit DrugAdded(drug.id, drug.name, drug.description, drug.manufacturer, drug.price);\r\n    return drug;\r\n}\r\n\r\nevent OrderAdded(\r\n  uint id,\r\n  uint drugIndex,\r\n  address pharmacy,\r\n  address distributor);\r\n\r\n    function orderDrug(uint index , address distributor ) public onlyPharmacie  returns(Order memory) {\r\n        Order memory order = Order({\r\n            id : orderNumber ,\r\n            drugIndex : index,\r\n            pharmacy : msg.sender,\r\n            distributor: distributor,\r\n            Status : OrderStatus.Ordered\r\n        });\r\n        orders[orderNumber]= order;\r\n        orderNumber++;\r\n        drugs[index].Status = Status.Ordered;\r\n        emit OrderAdded(order.id, order.drugIndex, order.pharmacy, order.distributor);\r\n        return order;\r\n    }\r\n    function priceChanger(uint index , int price) public onlyPharmacie {\r\n        drugs[index].price = price;\r\n    }\r\n    function AcceptOrder(uint orderIndex) public onlyManufacturer AcceptCond(orderIndex) {\r\n        orders[orderIndex].Status = OrderStatus.Accepted;\r\n    }\r\n    function DeclineOrder(uint orderIndex) public onlyManufacturer AcceptCond(orderIndex) {\r\n    orders[orderIndex].Status = OrderStatus.Declined;\r\n    }\r\n    function startDeliverdrug(uint orderIndex) public onlyDistributor DeliveringCond(orderIndex) {\r\n        uint index = orders[orderIndex].drugIndex;\r\n        drugs[index].Status = Status.Delivering;\r\n        drugs[index].ownerID = orders[orderIndex].distributor;\r\n\r\n    }\r\n    function endDelivering(uint orderIndex) public onlyDistributor {\r\n        uint index = orders[orderIndex].drugIndex;\r\n        orders[orderIndex].Status = OrderStatus.Completed;\r\n        drugs[index].Status = Status.Delivered;\r\n        drugs[index].ownerID = orders[orderIndex].pharmacy;\r\n    }\r\n    function buyDrug(uint index) public onlyClient {\r\n        drugs[index].Status = Status.Sold;\r\n        drugs[index].ownerID = msg.sender;\r\n    }\r\n    \r\n\r\n}",
  "sourcePath": "C:\\Users\\FiaZZ\\A-Blockchain-Based-Approach-for-Drug-Traceability-in-Healthcare-Supply-Chain\\SupplyChain\\contracts\\SupplyChain.sol",
  "compiler": {
    "name": "solc",
    "version": "0.8.17+commit.8df45f5f.Emscripten.clang"
  },
  "schemaVersion": "3.4.11",
  "updatedAt": "2023-03-26T01:24:19.928Z",
  "networkType": "ethereum",
  "devdoc": {
    "kind": "dev",
    "methods": {},
    "version": 1
  },
  "userdoc": {
    "kind": "user",
    "methods": {},
    "version": 1
  }
}