{
  "contractName": "SupplyChain",
  "abi": [
    {
      "inputs": [],
      "stateMutability": "nonpayable",
      "type": "constructor"
    },
    {
      "inputs": [
        {
          "internalType": "address",
          "name": "account",
          "type": "address"
        }
      ],
      "name": "addClient",
      "outputs": [],
      "stateMutability": "nonpayable",
      "type": "function"
    },
    {
      "inputs": [
        {
          "internalType": "uint256",
          "name": "",
          "type": "uint256"
        }
      ],
      "name": "drugs",
      "outputs": [
        {
          "internalType": "uint256",
          "name": "id",
          "type": "uint256"
        },
        {
          "internalType": "string",
          "name": "name",
          "type": "string"
        },
        {
          "internalType": "string",
          "name": "description",
          "type": "string"
        },
        {
          "internalType": "address",
          "name": "manufacturer",
          "type": "address"
        },
        {
          "internalType": "address",
          "name": "ownerID",
          "type": "address"
        },
        {
          "internalType": "int256",
          "name": "price",
          "type": "int256"
        },
        {
          "internalType": "enum SupplyChain.Status",
          "name": "Status",
          "type": "uint8"
        }
      ],
      "stateMutability": "view",
      "type": "function",
      "constant": true
    },
    {
      "inputs": [],
      "name": "drugsNumber",
      "outputs": [
        {
          "internalType": "uint256",
          "name": "",
          "type": "uint256"
        }
      ],
      "stateMutability": "view",
      "type": "function",
      "constant": true
    },
    {
      "inputs": [
        {
          "internalType": "address",
          "name": "account",
          "type": "address"
        }
      ],
      "name": "isClient",
      "outputs": [
        {
          "internalType": "bool",
          "name": "",
          "type": "bool"
        }
      ],
      "stateMutability": "view",
      "type": "function",
      "constant": true
    },
    {
      "inputs": [
        {
          "internalType": "address",
          "name": "account",
          "type": "address"
        }
      ],
      "name": "isDistributor",
      "outputs": [
        {
          "internalType": "bool",
          "name": "",
          "type": "bool"
        }
      ],
      "stateMutability": "view",
      "type": "function",
      "constant": true
    },
    {
      "inputs": [
        {
          "internalType": "address",
          "name": "account",
          "type": "address"
        }
      ],
      "name": "isManufacturer",
      "outputs": [
        {
          "internalType": "bool",
          "name": "",
          "type": "bool"
        }
      ],
      "stateMutability": "view",
      "type": "function",
      "constant": true
    },
    {
      "inputs": [
        {
          "internalType": "address",
          "name": "account",
          "type": "address"
        }
      ],
      "name": "isPharmacie",
      "outputs": [
        {
          "internalType": "bool",
          "name": "",
          "type": "bool"
        }
      ],
      "stateMutability": "view",
      "type": "function",
      "constant": true
    },
    {
      "inputs": [],
      "name": "orderNumber",
      "outputs": [
        {
          "internalType": "uint256",
          "name": "",
          "type": "uint256"
        }
      ],
      "stateMutability": "view",
      "type": "function",
      "constant": true
    },
    {
      "inputs": [
        {
          "internalType": "uint256",
          "name": "",
          "type": "uint256"
        }
      ],
      "name": "orders",
      "outputs": [
        {
          "internalType": "uint256",
          "name": "id",
          "type": "uint256"
        },
        {
          "internalType": "uint256",
          "name": "drugIndex",
          "type": "uint256"
        },
        {
          "internalType": "address",
          "name": "pharmacy",
          "type": "address"
        },
        {
          "internalType": "address",
          "name": "distributor",
          "type": "address"
        },
        {
          "internalType": "enum SupplyChain.OrderStatus",
          "name": "Status",
          "type": "uint8"
        }
      ],
      "stateMutability": "view",
      "type": "function",
      "constant": true
    },
    {
      "inputs": [],
      "name": "getDrugsNumber",
      "outputs": [
        {
          "internalType": "uint256",
          "name": "",
          "type": "uint256"
        }
      ],
      "stateMutability": "view",
      "type": "function",
      "constant": true
    },
    {
      "inputs": [
        {
          "internalType": "string",
          "name": "name1",
          "type": "string"
        },
        {
          "internalType": "string",
          "name": "description1",
          "type": "string"
        },
        {
          "internalType": "int256",
          "name": "price",
          "type": "int256"
        }
      ],
      "name": "drugCreate",
      "outputs": [
        {
          "components": [
            {
              "internalType": "uint256",
              "name": "id",
              "type": "uint256"
            },
            {
              "internalType": "string",
              "name": "name",
              "type": "string"
            },
            {
              "internalType": "string",
              "name": "description",
              "type": "string"
            },
            {
              "internalType": "address",
              "name": "manufacturer",
              "type": "address"
            },
            {
              "internalType": "address",
              "name": "ownerID",
              "type": "address"
            },
            {
              "internalType": "int256",
              "name": "price",
              "type": "int256"
            },
            {
              "internalType": "enum SupplyChain.Status",
              "name": "Status",
              "type": "uint8"
            }
          ],
          "internalType": "struct SupplyChain.Drug",
          "name": "",
          "type": "tuple"
        }
      ],
      "stateMutability": "payable",
      "type": "function",
      "payable": true
    },
    {
      "inputs": [
        {
          "internalType": "uint256",
          "name": "index",
          "type": "uint256"
        },
        {
          "internalType": "address",
          "name": "distributor",
          "type": "address"
        }
      ],
      "name": "orderDrug",
      "outputs": [
        {
          "components": [
            {
              "internalType": "uint256",
              "name": "id",
              "type": "uint256"
            },
            {
              "internalType": "uint256",
              "name": "drugIndex",
              "type": "uint256"
            },
            {
              "internalType": "address",
              "name": "pharmacy",
              "type": "address"
            },
            {
              "internalType": "address",
              "name": "distributor",
              "type": "address"
            },
            {
              "internalType": "enum SupplyChain.OrderStatus",
              "name": "Status",
              "type": "uint8"
            }
          ],
          "internalType": "struct SupplyChain.Order",
          "name": "",
          "type": "tuple"
        }
      ],
      "stateMutability": "nonpayable",
      "type": "function"
    },
    {
      "inputs": [
        {
          "internalType": "uint256",
          "name": "index",
          "type": "uint256"
        },
        {
          "internalType": "int256",
          "name": "price",
          "type": "int256"
        }
      ],
      "name": "priceChanger",
      "outputs": [],
      "stateMutability": "nonpayable",
      "type": "function"
    },
    {
      "inputs": [
        {
          "internalType": "uint256",
          "name": "orderIndex",
          "type": "uint256"
        }
      ],
      "name": "AcceptOrder",
      "outputs": [],
      "stateMutability": "nonpayable",
      "type": "function"
    },
    {
      "inputs": [
        {
          "internalType": "uint256",
          "name": "orderIndex",
          "type": "uint256"
        }
      ],
      "name": "DeclineOrder",
      "outputs": [],
      "stateMutability": "nonpayable",
      "type": "function"
    },
    {
      "inputs": [
        {
          "internalType": "uint256",
          "name": "orderIndex",
          "type": "uint256"
        }
      ],
      "name": "startDeliverdrug",
      "outputs": [],
      "stateMutability": "nonpayable",
      "type": "function"
    },
    {
      "inputs": [
        {
          "internalType": "uint256",
          "name": "orderIndex",
          "type": "uint256"
        }
      ],
      "name": "endDelivering",
      "outputs": [],
      "stateMutability": "nonpayable",
      "type": "function"
    },
    {
      "inputs": [
        {
          "internalType": "uint256",
          "name": "index",
          "type": "uint256"
        }
      ],
      "name": "buyDrug",
      "outputs": [],
      "stateMutability": "nonpayable",
      "type": "function"
    }
  ],
  "bytecode": "0x6080604052600060055560006007553480156200001b57600080fd5b506200002d336200006660201b60201c565b6200003e336200008460201b60201c565b6200004f33620000a260201b60201c565b6200006033620000c060201b60201c565b62000293565b62000081816000620000de60201b620011e81790919060201c565b50565b6200009f816001620000de60201b620011e81790919060201c565b50565b620000bd816002620000de60201b620011e81790919060201c565b50565b620000db816003620000de60201b620011e81790919060201c565b50565b620000f082826200019160201b60201c565b1562000133576040517f08c379a00000000000000000000000000000000000000000000000000000000081526004016200012a9062000271565b60405180910390fd5b60018260000160008373ffffffffffffffffffffffffffffffffffffffff1673ffffffffffffffffffffffffffffffffffffffff16815260200190815260200160002060006101000a81548160ff0219169083151502179055505050565b60008260000160008373ffffffffffffffffffffffffffffffffffffffff1673ffffffffffffffffffffffffffffffffffffffff16815260200190815260200160002060009054906101000a900460ff16905092915050565b600082825260208201905092915050565b7f54686973206164647265737320616c726561647920686173207468697320726f60008201527f6c65000000000000000000000000000000000000000000000000000000000000602082015250565b600062000259602283620001ea565b91506200026682620001fb565b604082019050919050565b600060208201905081810360008301526200028c816200024a565b9050919050565b61229480620002a36000396000f3fe6080604052600436106101095760003560e01c8063a3a6fc4411610095578063d11daa6a11610064578063d11daa6a146103aa578063dc6a7c50146103d3578063f0071512146103fc578063f8f73a3e14610427578063fca5e61e1461045057610109565b8063a3a6fc44146102d1578063a85c38ef1461030e578063b04dd81b1461034f578063b230133c1461037a57610109565b806359c4db88116100dc57806359c4db88146101da57806368f46b151461020357806376f692741461022c57806384b7964f146102575780638f0c86fa1461029457610109565b806317d4a4911461010e5780633e25794c1461014b5780633ee2abe21461017457806343928cfd146101b1575b600080fd5b34801561011a57600080fd5b5061013560048036038101906101309190611443565b610493565b604051610142919061148b565b60405180910390f35b34801561015757600080fd5b50610172600480360381019061016d9190611512565b6104b0565b005b34801561018057600080fd5b5061019b60048036038101906101969190611443565b610517565b6040516101a8919061148b565b60405180910390f35b3480156101bd57600080fd5b506101d860048036038101906101d39190611443565b610534565b005b3480156101e657600080fd5b5061020160048036038101906101fc9190611552565b61054b565b005b34801561020f57600080fd5b5061022a60048036038101906102259190611552565b61062b565b005b34801561023857600080fd5b5061024161070b565b60405161024e919061158e565b60405180910390f35b34801561026357600080fd5b5061027e60048036038101906102799190611443565b610715565b60405161028b919061148b565b60405180910390f35b3480156102a057600080fd5b506102bb60048036038101906102b69190611443565b610732565b6040516102c8919061148b565b60405180910390f35b3480156102dd57600080fd5b506102f860048036038101906102f391906115a9565b61074f565b60405161030591906116e6565b60405180910390f35b34801561031a57600080fd5b5061033560048036038101906103309190611552565b610957565b60405161034695949392919061171f565b60405180910390f35b34801561035b57600080fd5b506103646109da565b604051610371919061158e565b60405180910390f35b610394600480360381019061038f91906118b8565b6109e0565b6040516103a19190611abc565b60405180910390f35b3480156103b657600080fd5b506103d160048036038101906103cc9190611552565b610c6e565b005b3480156103df57600080fd5b506103fa60048036038101906103f59190611552565b610d4c565b005b34801561040857600080fd5b50610411610ed3565b60405161041e919061158e565b60405180910390f35b34801561043357600080fd5b5061044e60048036038101906104499190611552565b610ed9565b005b34801561045c57600080fd5b5061047760048036038101906104729190611552565b611049565b60405161048a9796959493929190611b46565b60405180910390f35b60006104a982600261129090919063ffffffff16565b9050919050565b6104b933610517565b6104f8576040517f08c379a00000000000000000000000000000000000000000000000000000000081526004016104ef90611c35565b60405180910390fd5b8060046000848152602001908152602001600020600501819055505050565b600061052d82600361129090919063ffffffff16565b9050919050565b6105488160006111e890919063ffffffff16565b50565b61055433610493565b610593576040517f08c379a000000000000000000000000000000000000000000000000000000000815260040161058a90611cc7565b60405180910390fd5b80600060038111156105a8576105a7611607565b5b6006600083815260200190815260200160002060030160149054906101000a900460ff1660038111156105de576105dd611607565b5b146105e857600080fd5b60016006600084815260200190815260200160002060030160146101000a81548160ff0219169083600381111561062257610621611607565b5b02179055505050565b61063433610493565b610673576040517f08c379a000000000000000000000000000000000000000000000000000000000815260040161066a90611cc7565b60405180910390fd5b806000600381111561068857610687611607565b5b6006600083815260200190815260200160002060030160149054906101000a900460ff1660038111156106be576106bd611607565b5b146106c857600080fd5b60026006600084815260200190815260200160002060030160146101000a81548160ff0219169083600381111561070257610701611607565b5b02179055505050565b6000600554905090565b600061072b82600061129090919063ffffffff16565b9050919050565b600061074882600161129090919063ffffffff16565b9050919050565b6107576112e9565b61076033610517565b61079f576040517f08c379a000000000000000000000000000000000000000000000000000000000815260040161079690611c35565b60405180910390fd5b60006040518060a0016040528060075481526020018581526020013373ffffffffffffffffffffffffffffffffffffffff1681526020018473ffffffffffffffffffffffffffffffffffffffff1681526020016000600381111561080657610805611607565b5b815250905080600660006007548152602001908152602001600020600082015181600001556020820151816001015560408201518160020160006101000a81548173ffffffffffffffffffffffffffffffffffffffff021916908373ffffffffffffffffffffffffffffffffffffffff16021790555060608201518160030160006101000a81548173ffffffffffffffffffffffffffffffffffffffff021916908373ffffffffffffffffffffffffffffffffffffffff16021790555060808201518160030160146101000a81548160ff021916908360038111156108ee576108ed611607565b5b02179055509050506007600081548092919061090990611d16565b919050555060016004600086815260200190815260200160002060060160006101000a81548160ff0219169083600481111561094857610947611607565b5b02179055508091505092915050565b60066020528060005260406000206000915090508060000154908060010154908060020160009054906101000a900473ffffffffffffffffffffffffffffffffffffffff16908060030160009054906101000a900473ffffffffffffffffffffffffffffffffffffffff16908060030160149054906101000a900460ff16905085565b60075481565b6109e8611356565b6109f133610493565b610a30576040517f08c379a0000000000000000000000000000000000000000000000000000000008152600401610a2790611cc7565b60405180910390fd5b83836000825111610a76576040517f08c379a0000000000000000000000000000000000000000000000000000000008152600401610a6d90611daa565b60405180910390fd5b6000815111610aba576040517f08c379a0000000000000000000000000000000000000000000000000000000008152600401610ab190611daa565b60405180910390fd5b60006040518060e0016040528060055481526020018881526020018781526020013373ffffffffffffffffffffffffffffffffffffffff1681526020013373ffffffffffffffffffffffffffffffffffffffff16815260200186815260200160006004811115610b2d57610b2c611607565b5b815250905080600460006005548152602001908152602001600020600082015181600001556020820151816001019081610b679190611fd6565b506040820151816002019081610b7d9190611fd6565b5060608201518160030160006101000a81548173ffffffffffffffffffffffffffffffffffffffff021916908373ffffffffffffffffffffffffffffffffffffffff16021790555060808201518160040160006101000a81548173ffffffffffffffffffffffffffffffffffffffff021916908373ffffffffffffffffffffffffffffffffffffffff16021790555060a0820151816005015560c08201518160060160006101000a81548160ff02191690836004811115610c4157610c40611607565b5b021790555090505060056000815480929190610c5c90611d16565b91905055508093505050509392505050565b610c7733610715565b610cb6576040517f08c379a0000000000000000000000000000000000000000000000000000000008152600401610cad9061211a565b60405180910390fd5b600480600083815260200190815260200160002060060160006101000a81548160ff02191690836004811115610cef57610cee611607565b5b0217905550336004600083815260200190815260200160002060040160006101000a81548173ffffffffffffffffffffffffffffffffffffffff021916908373ffffffffffffffffffffffffffffffffffffffff16021790555050565b610d5533610732565b610d94576040517f08c379a0000000000000000000000000000000000000000000000000000000008152600401610d8b906121ac565b60405180910390fd5b8060016003811115610da957610da8611607565b5b6006600083815260200190815260200160002060030160149054906101000a900460ff166003811115610ddf57610dde611607565b5b14610de957600080fd5b60006006600084815260200190815260200160002060010154905060026004600083815260200190815260200160002060060160006101000a81548160ff02191690836004811115610e3e57610e3d611607565b5b02179055506006600084815260200190815260200160002060030160009054906101000a900473ffffffffffffffffffffffffffffffffffffffff166004600083815260200190815260200160002060040160006101000a81548173ffffffffffffffffffffffffffffffffffffffff021916908373ffffffffffffffffffffffffffffffffffffffff160217905550505050565b60055481565b610ee233610732565b610f21576040517f08c379a0000000000000000000000000000000000000000000000000000000008152600401610f18906121ac565b60405180910390fd5b60006006600083815260200190815260200160002060010154905060036006600084815260200190815260200160002060030160146101000a81548160ff02191690836003811115610f7657610f75611607565b5b021790555060036004600083815260200190815260200160002060060160006101000a81548160ff02191690836004811115610fb557610fb4611607565b5b02179055506006600083815260200190815260200160002060020160009054906101000a900473ffffffffffffffffffffffffffffffffffffffff166004600083815260200190815260200160002060040160006101000a81548173ffffffffffffffffffffffffffffffffffffffff021916908373ffffffffffffffffffffffffffffffffffffffff1602179055505050565b600460205280600052604060002060009150905080600001549080600101805461107290611df9565b80601f016020809104026020016040519081016040528092919081815260200182805461109e90611df9565b80156110eb5780601f106110c0576101008083540402835291602001916110eb565b820191906000526020600020905b8154815290600101906020018083116110ce57829003601f168201915b50505050509080600201805461110090611df9565b80601f016020809104026020016040519081016040528092919081815260200182805461112c90611df9565b80156111795780601f1061114e57610100808354040283529160200191611179565b820191906000526020600020905b81548152906001019060200180831161115c57829003601f168201915b5050505050908060030160009054906101000a900473ffffffffffffffffffffffffffffffffffffffff16908060040160009054906101000a900473ffffffffffffffffffffffffffffffffffffffff16908060050154908060060160009054906101000a900460ff16905087565b6111f28282611290565b15611232576040517f08c379a00000000000000000000000000000000000000000000000000000000081526004016112299061223e565b60405180910390fd5b60018260000160008373ffffffffffffffffffffffffffffffffffffffff1673ffffffffffffffffffffffffffffffffffffffff16815260200190815260200160002060006101000a81548160ff0219169083151502179055505050565b60008260000160008373ffffffffffffffffffffffffffffffffffffffff1673ffffffffffffffffffffffffffffffffffffffff16815260200190815260200160002060009054906101000a900460ff16905092915050565b6040518060a001604052806000815260200160008152602001600073ffffffffffffffffffffffffffffffffffffffff168152602001600073ffffffffffffffffffffffffffffffffffffffff168152602001600060038111156113505761134f611607565b5b81525090565b6040518060e00160405280600081526020016060815260200160608152602001600073ffffffffffffffffffffffffffffffffffffffff168152602001600073ffffffffffffffffffffffffffffffffffffffff16815260200160008152602001600060048111156113cb576113ca611607565b5b81525090565b6000604051905090565b600080fd5b600080fd5b600073ffffffffffffffffffffffffffffffffffffffff82169050919050565b6000611410826113e5565b9050919050565b61142081611405565b811461142b57600080fd5b50565b60008135905061143d81611417565b92915050565b600060208284031215611459576114586113db565b5b60006114678482850161142e565b91505092915050565b60008115159050919050565b61148581611470565b82525050565b60006020820190506114a0600083018461147c565b92915050565b6000819050919050565b6114b9816114a6565b81146114c457600080fd5b50565b6000813590506114d6816114b0565b92915050565b6000819050919050565b6114ef816114dc565b81146114fa57600080fd5b50565b60008135905061150c816114e6565b92915050565b60008060408385031215611529576115286113db565b5b6000611537858286016114c7565b9250506020611548858286016114fd565b9150509250929050565b600060208284031215611568576115676113db565b5b6000611576848285016114c7565b91505092915050565b611588816114a6565b82525050565b60006020820190506115a3600083018461157f565b92915050565b600080604083850312156115c0576115bf6113db565b5b60006115ce858286016114c7565b92505060206115df8582860161142e565b9150509250929050565b6115f2816114a6565b82525050565b61160181611405565b82525050565b7f4e487b7100000000000000000000000000000000000000000000000000000000600052602160045260246000fd5b6004811061164757611646611607565b5b50565b600081905061165882611636565b919050565b60006116688261164a565b9050919050565b6116788161165d565b82525050565b60a08201600082015161169460008501826115e9565b5060208201516116a760208501826115e9565b5060408201516116ba60408501826115f8565b5060608201516116cd60608501826115f8565b5060808201516116e0608085018261166f565b50505050565b600060a0820190506116fb600083018461167e565b92915050565b61170a81611405565b82525050565b6117198161165d565b82525050565b600060a082019050611734600083018861157f565b611741602083018761157f565b61174e6040830186611701565b61175b6060830185611701565b6117686080830184611710565b9695505050505050565b600080fd5b600080fd5b6000601f19601f8301169050919050565b7f4e487b7100000000000000000000000000000000000000000000000000000000600052604160045260246000fd5b6117c58261177c565b810181811067ffffffffffffffff821117156117e4576117e361178d565b5b80604052505050565b60006117f76113d1565b905061180382826117bc565b919050565b600067ffffffffffffffff8211156118235761182261178d565b5b61182c8261177c565b9050602081019050919050565b82818337600083830152505050565b600061185b61185684611808565b6117ed565b90508281526020810184848401111561187757611876611777565b5b611882848285611839565b509392505050565b600082601f83011261189f5761189e611772565b5b81356118af848260208601611848565b91505092915050565b6000806000606084860312156118d1576118d06113db565b5b600084013567ffffffffffffffff8111156118ef576118ee6113e0565b5b6118fb8682870161188a565b935050602084013567ffffffffffffffff81111561191c5761191b6113e0565b5b6119288682870161188a565b9250506040611939868287016114fd565b9150509250925092565b600081519050919050565b600082825260208201905092915050565b60005b8381101561197d578082015181840152602081019050611962565b60008484015250505050565b600061199482611943565b61199e818561194e565b93506119ae81856020860161195f565b6119b78161177c565b840191505092915050565b6119cb816114dc565b82525050565b600581106119e2576119e1611607565b5b50565b60008190506119f3826119d1565b919050565b6000611a03826119e5565b9050919050565b611a13816119f8565b82525050565b600060e083016000830151611a3160008601826115e9565b5060208301518482036020860152611a498282611989565b91505060408301518482036040860152611a638282611989565b9150506060830151611a7860608601826115f8565b506080830151611a8b60808601826115f8565b5060a0830151611a9e60a08601826119c2565b5060c0830151611ab160c0860182611a0a565b508091505092915050565b60006020820190508181036000830152611ad68184611a19565b905092915050565b600082825260208201905092915050565b6000611afa82611943565b611b048185611ade565b9350611b1481856020860161195f565b611b1d8161177c565b840191505092915050565b611b31816114dc565b82525050565b611b40816119f8565b82525050565b600060e082019050611b5b600083018a61157f565b8181036020830152611b6d8189611aef565b90508181036040830152611b818188611aef565b9050611b906060830187611701565b611b9d6080830186611701565b611baa60a0830185611b28565b611bb760c0830184611b37565b98975050505050505050565b7f54686973206163636f756e7420686173206e6f206120506861726d616369652060008201527f526f6c6500000000000000000000000000000000000000000000000000000000602082015250565b6000611c1f602483611ade565b9150611c2a82611bc3565b604082019050919050565b60006020820190508181036000830152611c4e81611c12565b9050919050565b7f54686973206163636f756e7420686173206e6f2061204d616e7566616374757260008201527f657220526f6c6500000000000000000000000000000000000000000000000000602082015250565b6000611cb1602783611ade565b9150611cbc82611c55565b604082019050919050565b60006020820190508181036000830152611ce081611ca4565b9050919050565b7f4e487b7100000000000000000000000000000000000000000000000000000000600052601160045260246000fd5b6000611d21826114a6565b91507fffffffffffffffffffffffffffffffffffffffffffffffffffffffffffffffff8203611d5357611d52611ce7565b5b600182019050919050565b7f537472696e67206d757374206e6f7420626520656d7074790000000000000000600082015250565b6000611d94601883611ade565b9150611d9f82611d5e565b602082019050919050565b60006020820190508181036000830152611dc381611d87565b9050919050565b7f4e487b7100000000000000000000000000000000000000000000000000000000600052602260045260246000fd5b60006002820490506001821680611e1157607f821691505b602082108103611e2457611e23611dca565b5b50919050565b60008190508160005260206000209050919050565b60006020601f8301049050919050565b600082821b905092915050565b600060088302611e8c7fffffffffffffffffffffffffffffffffffffffffffffffffffffffffffffffff82611e4f565b611e968683611e4f565b95508019841693508086168417925050509392505050565b6000819050919050565b6000611ed3611ece611ec9846114a6565b611eae565b6114a6565b9050919050565b6000819050919050565b611eed83611eb8565b611f01611ef982611eda565b848454611e5c565b825550505050565b600090565b611f16611f09565b611f21818484611ee4565b505050565b5b81811015611f4557611f3a600082611f0e565b600181019050611f27565b5050565b601f821115611f8a57611f5b81611e2a565b611f6484611e3f565b81016020851015611f73578190505b611f87611f7f85611e3f565b830182611f26565b50505b505050565b600082821c905092915050565b6000611fad60001984600802611f8f565b1980831691505092915050565b6000611fc68383611f9c565b9150826002028217905092915050565b611fdf82611943565b67ffffffffffffffff811115611ff857611ff761178d565b5b6120028254611df9565b61200d828285611f49565b600060209050601f831160018114612040576000841561202e578287015190505b6120388582611fba565b8655506120a0565b601f19841661204e86611e2a565b60005b8281101561207657848901518255600182019150602085019450602081019050612051565b86831015612093578489015161208f601f891682611f9c565b8355505b6001600288020188555050505b505050505050565b7f54686973206163636f756e7420686173206e6f206120436c69656e7420526f6c60008201527f6500000000000000000000000000000000000000000000000000000000000000602082015250565b6000612104602183611ade565b915061210f826120a8565b604082019050919050565b60006020820190508181036000830152612133816120f7565b9050919050565b7f54686973206163636f756e7420686173206e6f2061204469737472696275746f60008201527f7220526f6c650000000000000000000000000000000000000000000000000000602082015250565b6000612196602683611ade565b91506121a18261213a565b604082019050919050565b600060208201905081810360008301526121c581612189565b9050919050565b7f54686973206164647265737320616c726561647920686173207468697320726f60008201527f6c65000000000000000000000000000000000000000000000000000000000000602082015250565b6000612228602283611ade565b9150612233826121cc565b604082019050919050565b600060208201905081810360008301526122578161221b565b905091905056fea26469706673582212209e58149bd5b90f6a18e9d53636c6cde856ec319d4af2379dd38ac26d56acd90664736f6c63430008110033",
  "immutableReferences": {},
  "source": "// SPDX-License-Identifier: MIT\r\npragma solidity ^0.8.0;\r\nimport './roles/Client.sol';\r\nimport './roles/Distributor.sol';\r\nimport './roles/Manufacturer.sol';\r\nimport './roles/Pharmacy.sol';\r\n\r\ncontract SupplyChain is Client,Distributor,Manufacturer,Pharmacy{\r\n    enum OrderStatus {Ordered ,Accepted , Declined, Completed}\r\n    enum Status {Created  , Ordered , Delivering , Delivered , Sold }\r\n    mapping(uint => Drug) public drugs; \r\n    uint public drugsNumber=0;   \r\n\r\n    mapping(uint => Order) public orders; \r\n    uint public orderNumber=0;   \r\n    struct Drug {\r\n        uint id ;\r\n        string name;\r\n        string description;\r\n        address manufacturer;\r\n        address ownerID;\r\n        int price;\r\n        Status Status;\r\n    }\r\n    struct Order{\r\n        uint id ;\r\n        uint drugIndex;\r\n        address pharmacy;\r\n        address distributor;\r\n        OrderStatus Status;\r\n    }\r\n    constructor(){       \r\n\r\n    }\r\n  function getDrugsNumber() public view returns (uint) {\r\n    return drugsNumber;\r\n}   \r\n    modifier orderCond(uint _index){\r\n        require(drugs[_index].manufacturer != msg.sender ,\"erroooooooooooor\");\r\n    _;\r\n    }\r\n    modifier DeliveringCond(uint _index){\r\n        require(orders[_index].Status == OrderStatus.Accepted);\r\n    _;\r\n    }\r\n    modifier AcceptCond(uint _Index){\r\n        require(orders[_Index].Status == OrderStatus.Ordered);\r\n        _;\r\n    }\r\n    modifier BuyCond(uint _Index){\r\n        require(orders[_Index].Status == OrderStatus.Completed);\r\n        require(drugs[orders[_Index].drugIndex].Status == Status.Delivered);\r\n        _;\r\n    }\r\n    modifier nameDrug(string memory _name1,string memory _description1){\r\n        require(bytes(_name1).length > 0, \"String must not be empty\");\r\n        require(bytes(_description1).length > 0, \"String must not be empty\");\r\n        _;\r\n    }\r\nfunction drugCreate (string memory name1, string memory description1, int price) public payable onlyManufacturer nameDrug(name1, description1) returns (Drug memory){\r\n\r\n    Drug memory drug = Drug({\r\n        id : drugsNumber ,\r\n        name : name1,\r\n        description : description1,\r\n        manufacturer : msg.sender,\r\n        Status : Status.Created,\r\n        price : price ,\r\n        ownerID : msg.sender\r\n    });\r\n\r\n    drugs[drugsNumber]= drug;\r\n    drugsNumber++;\r\n    return drug;\r\n\r\n}\r\n//orderCond(index)\r\n    function orderDrug(uint index , address distributor ) public onlyPharmacie  returns(Order memory) {\r\n        Order memory order = Order({\r\n            id : orderNumber ,\r\n            drugIndex : index,\r\n            pharmacy : msg.sender,\r\n            distributor: distributor,\r\n            Status : OrderStatus.Ordered\r\n        });\r\n        orders[orderNumber]= order;\r\n        orderNumber++;\r\n        drugs[index].Status = Status.Ordered;\r\n        return order;\r\n    }\r\n    function priceChanger(uint index , int price) public onlyPharmacie {\r\n        drugs[index].price = price;\r\n    }\r\n    function AcceptOrder(uint orderIndex) public onlyManufacturer AcceptCond(orderIndex) {\r\n        orders[orderIndex].Status = OrderStatus.Accepted;\r\n    }\r\n    function DeclineOrder(uint orderIndex) public onlyManufacturer AcceptCond(orderIndex) {\r\n    orders[orderIndex].Status = OrderStatus.Declined;\r\n    }\r\n    function startDeliverdrug(uint orderIndex) public onlyDistributor DeliveringCond(orderIndex) {\r\n        uint index = orders[orderIndex].drugIndex;\r\n        drugs[index].Status = Status.Delivering;\r\n        drugs[index].ownerID = orders[orderIndex].distributor;\r\n\r\n    }\r\n    function endDelivering(uint orderIndex) public onlyDistributor {\r\n        uint index = orders[orderIndex].drugIndex;\r\n        orders[orderIndex].Status = OrderStatus.Completed;\r\n        drugs[index].Status = Status.Delivered;\r\n        drugs[index].ownerID = orders[orderIndex].pharmacy;\r\n    }\r\n    function buyDrug(uint index) public onlyClient {\r\n        drugs[index].Status = Status.Sold;\r\n        drugs[index].ownerID = msg.sender;\r\n    }\r\n    \r\n\r\n}",
  "sourcePath": "C:\\Users\\FiaZZ\\Desktop\\Final\\A-Blockchain-Based-Approach-for-Drug-Traceability-in-Healthcare-Supply-Chain\\SupplyChain\\contracts\\SupplyChain.sol",
  "compiler": {
    "name": "solc",
    "version": "0.8.17+commit.8df45f5f.Emscripten.clang"
  },
  "schemaVersion": "3.4.11",
  "updatedAt": "2023-02-21T21:10:46.252Z",
  "networkType": "ethereum",
  "devdoc": {
    "kind": "dev",
    "methods": {},
    "version": 1
  },
  "userdoc": {
    "kind": "user",
    "methods": {},
    "version": 1
  }
}